:020000040800F2
:10000000080700208D01000829090008470600089C
:10001000E9080008E7040008C91100080000000012
:10002000000000000000000000000000050A0008B9
:10003000EB04000800000000B9090008E10A00080C
:10004000A7010008A7010008A7010008A7010008F0
:10005000A7010008A7010008A7010008A7010008E0
:10006000A7010008A7010008A7010008A7010008D0
:10007000A7010008A7010008A7010008A7010008C0
:10008000A7010008A7010008A7010008A7010008B0
:10009000A7010008A7010008A7010008A7010008A0
:1000A000A7010008A7010008A7010008A701000890
:1000B000A7010008F10C0008A7010008A70100082B
:1000C000A7010008A7010008A7010008A701000870
:1000D000A7010008A7010008A7010008A701000860
:1000E000A7010008A7010008A701000800F002F816
:1000F00000F03CF80AA090E8000C82448344AAF186
:100100000107DA4501D100F031F8AFF2090EBAE883
:100110000F0013F0010F18BFFB1A43F0010318473B
:100120001863000038630000103A24BF78C878C113
:10013000FAD8520724BF30C830C144BF04680C60ED
:10014000704700000023002400250026103A28BF35
:1001500078C1FBD8520728BF30C148BF0B60704739
:100160001FB505F0A0F91FBD10B510BD00F084F952
:100170001146FFF7F5FF02F0F3FE00F0A2F903B419
:10018000FFF7F2FF03BC00F0A7F900000948804721
:1001900009480047FEE7FEE7FEE7FEE7FEE7FEE769
:1001A000FEE7FEE7FEE7FEE704480549054A064B81
:1001B00070470000110B0008ED0000080801002046
:1001C000080700200803002008030020B2F12003E4
:1001D0000AD5C2F1200301FA02F120FA03F300FA72
:1001E00002F041EA0301704700FA03F14FF000000A
:1001F0007047B2F120030AD5C2F1200320FA02F0C1
:1002000001FA03F341FA02F140EA0300704741FAB0
:1002100003F04FEAE171704710B54C1084EA5304C3
:1002200004D54042C1F1000138BF491E1B4204D52C
:100230005242C3F1000338BF5B1E00F048F814F0CF
:10024000804F04D04042C1F1000138BF491E14F074
:10025000004F04D05242C3F1000338BF5B1E10BDF3
:1002600040EA010310B59B070FD1042A0DD310C833
:1002700008C9121F9C42F8D020BA19BA884201D985
:10028000012010BD4FF0FF3010BD1AB1D30703D0CD
:10029000521C07E0002010BD10F8013B11F8014B83
:1002A0001B1B07D110F8013B11F8014B1B1B01D19F
:1002B000921EF1D1184610BD02F0FF0343EA03225B
:1002C00042EA024200F087B870477047704753EA2D
:1002D000020C00F069802DE9F04B4FF00006002B76
:1002E0001FBFB3FA83F503FA05F424FA05F65E405E
:1002F00012BF1643B2FA82F502FA05F4C5F12005E1
:100300001EBF22FA05FC44EA0C04203556EA044CD0
:100310004FEA144418BF641C4FF000084FF0000966
:10032000904271EB030C39D3002919BFB1FA81F760
:1003300001FA07F6B0FA80F700FA07F6C7F12007CE
:100340001EBF20FA07FC46EA0C062037B6FBF4FC79
:10035000A7EB0507103F07F01F0BCBF120060CFAA7
:100360000BFB2CFA06F644BFB3460026202FA4BF91
:100370005E464FF0000B5BEA060C08BF4FF0010B26
:1003800019EB0B09ABFB027C48EB0608C01B06FB14
:1003900002CC0BFB03CC71EB0C01C1E70B46024610
:1003A00041464846BDE8F08B13B54FF000004FF0D2
:1003B0000001AFF30080BDE81C40704710B500F0AD
:1003C0002BF8006810BD10B5044600F025F8046055
:1003D00010BD4FF000020429C0F0128010F0030C91
:1003E00000F02080CCF1040CBCF1020F18BF00F823
:1003F000012BA8BF20F8022BA1EB0C0100F012B8D2
:100400005FEAC17C24BF00F8012B00F8012B48BF34
:1004100000F8012B7047000000487047A40000203E
:100420004FF0000200B5134694469646203922BF8D
:10043000A0E80C50A0E80C50B1F12001BFF4F7AFD8
:10044000090728BFA0E80C5048BF0CC05DF804EBBA
:10045000890028BF40F8042B08BF704748BF20F828
:10046000022B11F0804F18BF00F8012B70470000DD
:1004700000487047A40000207546FFF7F9FFAE461C
:1004800005006946534620F00700854618B020B5A0
:10049000FFF78AFEBDE820404FF000064FF000074E
:1004A0004FF000084FF0000B21F00701AC46ACE81C
:1004B000C009ACE8C009ACE8C009ACE8C0098D4689
:1004C00070470446AFF300802046FFF758FE000057
:1004D00000487047A800002001491820ABBEFEE785
:1004E00026000200704700BFFEE7704710B50446C3
:1004F0004FF47A7104FB01F000F001F810BD70B503
:10050000064603F071FF821941F10000941E60F16C
:10051000000500BF03F068FF201A75EB0100F9D257
:1005200070BD2DE9F04102464FF000052E462846E9
:1005300003460446074691F803C00CF00F0591F8F6
:1005400003C01CF0100F03D091F802C04CEA05055F
:10055000B1F800C01CF0FF0F35D014684FF0000058
:100560002EE04FF0010C0CFA00F3B1F800C00CEAD9
:1005700003069E4222D14FEA80034FF00F0C0CFA83
:1005800003F724EA070405FA03FC4CEA040491F893
:1005900003C0BCF1280F06D14FF0010C0CFA00FC8F
:1005A000C2F814C00AE091F803C0BCF1480F05D1AD
:1005B0004FF0010C0CFA00FCC2F810C000F1010071
:1005C0000828CED31460B1F800C0BCF1FF0F38DDAD
:1005D00054684FF0000031E000F1080C4FF00108C2
:1005E00008FA0CF3B1F800C00CEA03069E4223D1CE
:1005F0004FEA80034FF00F0C0CFA03F724EA0704CC
:1006000005FA03FC4CEA040491F803C0BCF1280F7E
:1006100005D100F1080C08FA0CF8C2F8148091F822
:1006200003C0BCF1480F07D100F1080C4FF00108DE
:1006300008FA0CF8C2F8108000F101000828CBD3AA
:100640005460BDE8F08100BFFEE7000010B54FF038
:1006500040000B49086000F027F94FF0800008497E
:10066000086000F021F94FF040000649086000F0F2
:100670001BF94FF040000249086000F015F910BD69
:10068000140C0140100C014008B54FF0C000ADF84B
:1006900000004FF003008DF802004FF014008DF8B9
:1006A000030069460148FFF73CFF08BD000C01400C
:1006B00010B54FF040000B49086000F0F5F84FF01E
:1006C00080000949086000F0EFF84FF0400006494B
:1006D000086000F0E9F84FF040000249086000F0BF
:1006E000E3F810BD140C0140100C014070B54FF040
:1006F00008054FF000044FF080001349086017E030
:100700004FEA44604FEA10644FF040000F49086020
:1007100000F0CAF84FF040000B49086000F0C4F840
:1007200009480838006810F0800F01D044F0010437
:100730002800A5F10101CDB2E2D14FF040000349FC
:100740000860204670BD0000100C0140140C0140F0
:1007500070B504464FF008051DE04FF04000134906
:10076000086000F0A1F814F0800F04D04FF0800072
:100770000F49086003E04FF080000C4908604FEA21
:1007800044604FEA106400F08FF84FF040000849D1
:10079000086000F089F82800A5F10101CDB2DCD194
:1007A0004FF040000149086070BD0000140C01408A
:1007B000100C014010B54FF08000144908604FF054
:1007C0004000086000F070F810480838006808B968
:1007D000012000E0002010F0800F01D0002010BDAB
:1007E0004FF080000A49086000F05EF807480838BA
:1007F000006810F0800F01D00020F0E74FF080007B
:100800000349086000F050F80120E8E7100C0140AF
:10081000140C014010B54FF040000B49086000F087
:1008200043F84FF080000849086000F03DF84FF0B1
:1008300040000649086000F037F84FF08000034997
:10084000086000F031F810BD140C0140100C01409C
:1008500010B54FF040001249086000F025F84FF045
:1008600080001049086000F01FF84FF040000D496B
:10087000086000F019F80B480838006810F0800F85
:1008800006D04FF04000064908604FF0000010BD50
:100890004FF04000024908604FF00100F7E7000008
:1008A000140C0140100C01404FF0070001E0A0F1D2
:1008B00001000028FBD1704708B50121082000F095
:1008C0008FF84FF40060ADF800004FF003008DF892
:1008D00002004FF010008DF8030069460148FFF751
:1008E00020FE08BD000C014000BFFEE710B500F07F
:1008F00003F800F0A9F910BD08B50121042000F0AB
:100900006FF84FF00F00ADF800004FF003008DF8C6
:1009100002004FF018008DF8030069460148FFF708
:1009200000FE08BD000801407047000070B54FF0A0
:1009300000010B464FF00F02C4784CB31B4C2468E7
:1009400004F4E064C4F5E0644FEA1421C1F1040347
:1009500022FA01F2447804FA03F1847804EA0204EA
:1009600044EA01014FEA0111114C0678A1550478BF
:1009700004F01F054FF0010404FA05F405784FEA6E
:1009800065154FF0E02606EB8505C5F800410CE043
:10099000047804F01F054FF0010404FA05F4054D36
:1009A00006784FEA661645F8264070BD0CED00E06B
:1009B00000E400E080E100E07047000031B1074A48
:1009C000D26942EA0002054BDA6105E0034AD269C6
:1009D00022EA0002014BDA61704700000010024079
:1009E00031B1074A926942EA0002054B9A6105E07B
:1009F000034A926922EA0002014B9A6170470000A3
:100A000000100240704710B500F002F810BD000061
:100A10004FF000010846304A126842F480322E4BF3
:100A20001A6000BF2C4A126802F4003001F1010183
:100A300010B9B1F5A06FF5D1274A126812F4003F42
:100A400002D04FF0010001E04FF00000012842D138
:100A5000224A126842F01002204B1A601A461268AD
:100A600022F003021A601A46126842F002021A606B
:100A7000194A5268184B5A601A4652685A601A4608
:100A8000526842F480625A601A46526822F47C121C
:100A90005A601A46526842F4E8125A601A461268BE
:100AA00042F080721A6000BF0B4A126812F0007F99
:100AB000FAD0094A526822F00302074B5A601A46DC
:100AC000526842F002025A6000BF034A526802F0C4
:100AD0000C02082AF9D170470010024000200240A1
:100AE000094800680849C968084407490860074878
:100AF000D0E900104FF00A03C91840F10000034A82
:100B0000C2E900107047000084000020500000205F
:100B100010B51448006840F001001249086008460A
:100B20004068114900EA01000E4948600846006823
:100B30000E4900EA01000B4908600846006820F4ED
:100B4000802008600846406820F4FE0048604FF4AA
:100B50001F008860FFF757FF4FF0006004490860EE
:100B600010BD0000001002400000FFF8FFFFF6FE7D
:100B700008ED00E02DE9F0414FF000002C4908603D
:100B80002C48006803F0AFFE064600222A4B03F013
:100B900025FD044603F07AFE254948602548006893
:100BA00003F0A1FE04460022244B03F017FD064685
:100BB00003F06CFE1E4988604FF00A00C8600846CA
:100BC000C0684FF47A72B2FBF0F01A4A1268B2FBB6
:100BD000F0F1B1F1807F00D327E021F07F40A0F158
:100BE00001004FF0E02250614FF0FF304FF00F0254
:100BF00000280ADA4FEA02734FEA1365104B00F03F
:100C00000F04A4F104041D5505E04FEA02734FEAF6
:100C100013640C4B1C5400BF4FF000004FF0E02257
:100C200090614FF00700106100BFBDE8F081000047
:100C3000840000200000002080842E4100408F406E
:100C400018ED00E000E400E000B587B0012108469F
:100C5000FFF7B4FE40F2E730ADF814004FF00000AB
:100C6000ADF81000ADF81600ADF8120004A94FF071
:100C7000804000F01DFA4FF06000ADF800004FF02A
:100C80000100ADF802004FF00000ADF80600ADF82D
:100C9000080069464FF0804000F07AF80821C80645
:100CA00000F0D4F869464FF0804000F0DBF80821EE
:100CB000C80600F035F969464FF0804000F03EF973
:100CC0000821C80600F096F969464FF0804000F010
:100CD0009DF90821C80600F0DDF90121880700F020
:100CE00015F80121880700F022F807B000BD0000C8
:100CF00010B50121044800F027F818B1012102487D
:100D000000F011F810BD00000004004021B102887D
:100D100042F08002028005E002884FF67F7302EA0B
:100D20000302028070476FEA01020282704721B11C
:100D3000028842F00102028005E002884FF6FE734D
:100D400002EA03020280704730B502464FF000000D
:100D500003460446158A05EA0103958905EA01045C
:100D60001BB114B14FF0010001E04FF0000030BDA5
:100D700010B522B1838943EA0103838106E08389A8
:100D80006FEA0104A4B203EA0403838110BD0000EA
:100D900070B54FF0000422461346058C4FF6FE76E0
:100DA00005EA06050584028C8388048B4FF68F754F
:100DB00004EA05044FF6FC7504EA05040D8845EACB
:100DC00004044FF6FD7502EA05020D8945EA0202A8
:100DD0004D8845EA0202184DA8420BD0174DA84293
:100DE00008D0174DA84205D0164DA84202D0164D86
:100DF000A8421BD14FF6F77502EA05024D8945EA74
:100E000002024FF6FB7502EA05028D8845EA0202EE
:100E10004FF6FF6503EA05034FF6FF5503EA0503A6
:100E20008D8945EA0303CD8945EA03038380048362
:100E3000CD888586028470BD002C014000340140BD
:100E40000040014000440140004801400A464FF084
:100E50000001018B4FF6F77301EA030141EA020139
:100E60000183704770B54FF0000422461346058C8D
:100E70004FF6EF7605EA06050584028C8388048B1D
:100E800048F6FF7504EA05044FF6FF4504EA050439
:100E90000D884FEA056544EA15444FF6DF7502EA0E
:100EA00005020D894FEA055542EA15424D884FEA81
:100EB000055542EA1542184DA84202D0174DA842E6
:100EC00023D14FF67F7502EA05024D894FEA055599
:100ED00042EA15424FF6BF7502EA05028D884FEAD5
:100EE000055542EA15424FF6FF3503EA05034FF276
:100EF000FF7503EA05038D894FEA854543EA1543EB
:100F0000CD894FEA854543EA154383800483CD8824
:100F10000587028470BD0000002C014000340140B0
:100F20000A464FF00001018B4FF2FF7301EA030103
:100F30004FEA026341EA13410183704770B54FF0F5
:100F4000000422461346058C4FF6FF6605EA0605A7
:100F50000584028C8388848B4FF68F7504EA050420
:100F60004FF6FC7504EA05040D8845EA04044FF6C3
:100F7000FF5502EA05020D894FEA056542EA15426E
:100F80004D884FEA056542EA1542184DA84202D045
:100F9000174DA84223D14FF2FF7502EA05024D8991
:100FA0004FEA056542EA15424FF6FF3502EA0502AF
:100FB0008D884FEA056542EA15424EF6FF7503EA51
:100FC00005034DF6FF7503EA05038D894FEA0555C4
:100FD00043EA1543CD894FEA055543EA154383801B
:100FE0008483CD888587028470BD0000002C014079
:100FF000003401400A464FF00001818B4FF6F77331
:1010000001EA030141EA02018183704770B54FF0A4
:10101000000213461446058C4EF6FF7605EA0605D7
:101020000584038C8488828B48F6FF7502EA0502EA
:101030004FF6FF4502EA05020D884FEA056542EAD0
:1010400015424DF6FF7503EA05030D894FEA057554
:1010500043EA15434D884FEA057543EA15430B4DA6
:10106000A84202D00A4DA84208D14BF6FF7504EA07
:1010700005048D894FEA855544EA154484808283AE
:10108000CD88A0F84050038470BD0000002C0140C2
:10109000003401400A464FF00001818B4FF2FF738C
:1010A00001EA03014FEA026341EA13418183704779
:1010B0004FF000020288204B98420ED01F4B9842FE
:1010C0000BD0B0F1804F08D01D4B984205D01D4B7E
:1010D000984202D01C4B984206D14FF68F7302EA19
:1010E00003024B8843EA0202184B984209D0184B7E
:1010F000984206D04FF6FF4302EA0302CB8843EA48
:10110000020202808B8883850B8803850A4B9842F4
:101110000BD00A4B984208D00E4B984205D00E4B8C
:10112000984202D00D4B984201D10B7A03864FF0C2
:101130000103838270470000002C0140003401400D
:101140000004004000080040000C00400010004077
:1011500000140040004001400044014000480140AC
:101160001FB501210220FFF729FC4FF47A70ADF87A
:1011700008004FF43470ADF804004FF00000ADF8F3
:101180000A00ADF8060001A90E48FFF791FF012201
:1011900011460C48FFF7ECFD01210A48FFF7C7FD97
:1011A0004FF01D008DF800004FF002008DF8010097
:1011B0004FF001008DF802008DF803006846FFF73C
:1011C000B5FB1FBD0004004000BFFEE7490050EA28
:1011D000C12018BF04204A0D18BF40F0010040F2A2
:1011E000FF72B2EB515F08BF40F00200012808BF58
:1011F000052070472DE9F0414F1E00EBC701044662
:10120000D1E9000115461E4637F006020DD02A46E8
:10121000334603F07BFB7F1E04EBC703D3E90023B7
:1012200003F02CF937F00602F1D1022F25D0042F5C
:1012300013D0062F18BFBDE8F0812A46334603F0CD
:1012400065FBD4E90A2303F019F92A46334603F073
:101250005DFBD4E9082303F011F92A46334603F075
:1012600055FBD4E9062303F009F92A46334603F077
:101270004DFBD4E9042303F001F92A46334603F079
:1012800045FBD4E9022303F0F9F82A46334603F07C
:101290003DFBD4E90023BDE8F04103F0EFB80000C6
:1012A000024A0020110704F0E2B9000001FDFFFF2F
:1012B0002DE9FE4F06460F464FF00005684601F047
:1012C00023FA2C4648E056F8240057F82410B0EBD7
:1012D000010A01D4514601E0CAF10001084603F0B9
:1012E000BBFF83464FF08F4103F084FE80465DF8DC
:1012F00024004FF0000103F03FFF19D05DF82410E7
:10130000404603F077FE82464FF07E5104F008F924
:10131000814629F0004A1348416A504604F0CFF84C
:1013200018D24FF0010000FA04F040EA050511E080
:101330000C48C169404603F0BBFF05D30948016A68
:10134000404604F0BCF805D24FF0010000FA04F06A
:1013500040EA050504F10104032CB4DB2846BDE88E
:10136000FE8F0000245700082DE9F04D914F21F029
:10137000004A86B005460C46BA452FDBAAEB0700AB
:1013800028430BD08C48824501DC1BD1D5B106B077
:101390002846BDE8F04D012204F069B9874A884B20
:1013A000284603F0B3FA07460E46864A864B28467F
:1013B000214603F0ABFA06B03A463346BDE8F04D9D
:1013C00003F05CB80120FEF7FEFF06B00022BDE886
:1013D000F04D13461046114603F000B97B48824594
:1013E00043DABAF1795F0BDA2846FFF7EFFE0428FB
:1013F00008BFFFF755FF284606B02146BDE8F08D2F
:101400002A460B461046214603F080FA83460246E0
:101410006F480E460B4606217844FFF7EBFE5A460E
:10142000334603F073FA80466A488A465A46334682
:1014300004217844FFF7DEFE5A46334603F066FA8D
:1014400000223B4603F01AF802460B46404651463E
:1014500003F0C4F82A46234603F058FA06B02A4699
:101460002346BDE8F04D03F009B8284624F00041BA
:1014700000223D463B4603F047FB4FF0FF3204F0AD
:10148000F6F80646024654480F460B4606217844B5
:10149000FFF7B0FE32463B4603F038FACDE90001D3
:1014A0004E4832463B4604217844FFF7A3FE3246BD
:1014B0003B4603F02BFA00222B4602F0DFFF834667
:1014C00002913046394602F057FF804644480D46A7
:1014D000504517DCDDE900015A46029B03F07EF817
:1014E00042462B4603F012FA42462B4602F0C6FF54
:1014F000012204F0BCF8314A314B03F0F7FB314ACA
:10150000314B4DE04FF0000A0B465246404629460B
:1015100002F0B4FFCDE9031052462B46104619469F
:1015200003F0F4F932463B4603F0EEFADDE903320C
:1015300003F054F806460F46DDE900015A46029BC7
:1015400003F04CF88346009101223046394604F0FE
:101550008EF81A4A1A4B03F0D7FA06460F460122B4
:101560004046294604F083F85A46009B03F0CEF922
:1015700032463B4603F0BAFB07460E460122504670
:10158000294604F074F80F4DDFF858802A46434688
:1015900003F0BAFA3A46334603F0B6FA2A4643460F
:1015A00003F0B2FA002CD8BF81F0004106B0BDE8CC
:1015B000F08D00000000F03F0000F07F075C143366
:1015C00026A6913C182D4454FB21F93F0000E03F32
:1015D0002C4F0000424F0000B64E0000CC4E0000E1
:1015E0003333EF3FFB21E93F2DE9F84F04460D4629
:1015F00021F0004000917449884212DB734988420F
:1016000001DC07D134B120462946BDE8F84F01225C
:1016100004F02DB86E48002DCCBF6E496E49BDE870
:10162000F88F6E49884211DA6D498842A8BF4FF0A1
:10163000FF366DDA20462946FFF7C8FD042808BFAB
:10164000FFF72EFE20462946BDE8F88F6549DFF8F2
:1016500098A125F00045884232DA6449884219DAB7
:10166000002632464FF080432046294602F006FF0E
:101670000746884601222046294603F0F8FF00224B
:10168000534603F033FB3A46434602F0A7FF0446B5
:101690000D463DE00126002253462046294602F031
:1016A000EDFE07468846002253462046294603F0B1
:1016B0001DFB43463A4602F091FF04460D4627E0E3
:1016C0004B4988421BDADFF82C8102260022434670
:1016D0002046294603F01AF90022534602F0CEFEB6
:1016E00082460F46002243462046294603F0FEFA72
:1016F00052463B4602F072FF04460D4608E00326C0
:1017000022462B4600203C4902F068FF04460D4665
:1017100022462B461046194603F0F8F88B468246BF
:1017200002460B4603F0F2F8074602463348884665
:101730000B4606217844FFF75DFD52465B4603F0F9
:10174000E5F882462E488B463A46434605217844C2
:10175000FFF750FD3A46434603F0D8F802460B46E1
:10176000002E504659460CDA02F088FE22462B46DF
:1017700003F0CCF801B022462B46BDE8F04F03F051
:10178000C3B902F07BFE22462B4603F0BFF81D4A88
:101790007A4402EBC603D3E9002303F0A7FA2246FA
:1017A0002B4603F0A3FA184A7A4402EBC603D3E9A6
:1017B000002303F0A9F9009A002AB4BF81F0004188
:1017C000BDE8F88FBDE8F88F000010440000F07FFE
:1017D000182D4454FB21F93FFB21F9BF0000DC3FE9
:1017E0000000203E0000F33F0000F03F0000E63F15
:1017F000008003400000F83F0000F0BFC84C00002C
:10180000864C0000244C0000EC4B00002DE9F04D0C
:101810009446CCF1000423F000464CEA0404524FF5
:1018200046EAD47498468A4621F00042BC4206D863
:10183000454240EA050442EAD474BC4204D9BDE8FA
:10184000F04D624602F01ABEA8F14055A5F17F6541
:1018500055EA0C040BD0022404EAA874434DDFF8C7
:1018600010E144EADA7452EA000B04D00CE0BDE85F
:10187000F04DFFF7B9BE002C14BF012CBDE8F08D70
:10188000022C30D0032C32D056EA0C0B0AD0BE42C8
:1018900020D1BA4209D126F0804622F08042334658
:1018A000114617E000291ADB25E0DFF8C8B0FB4439
:1018B000002C04BFDBE90001BDE8F08D012C02BF64
:1018C000DBE9000181F00041BDE8F08D022C0AD077
:1018D000032C0CD0BA4212D1BAF1000F0BDA234814
:1018E0002549BDE8F08D28462449BDE8F08D2846FD
:1018F0007146BDE8F08D1D482149BDE8F08D921B71
:1019000012153C2AC4BF19481D490EDCB8F1000F5E
:10191000BEBF12F13C0F0020014606DB624602F01A
:101920005DFE21F00041FFF75FFE002C08BFBDE81F
:10193000F08D012C04BF81F00041BDE8F08D114A0B
:10194000114B022C07D003F0D1F92A46BDE8F04D27
:101950000A4B03F0CBB903F0C9F92A46BDE8F04DB4
:10196000064B03F0D1B800000000F07F182D44545E
:10197000FB2109C07E4B0000FB21F9BFFB21094080
:10198000FB21F93F075C143326A6A13C10B5FFF7F5
:10199000BFF8FFF7E5FBFFF7EDF8FEF78DFFFEF769
:1019A000A5FFFEF771FE3220FEF7A0FD10BD00007E
:1019B0002DE9F0410446E07800F0C006E07800F040
:1019C0003F05607810F0010F17D04FEAE507284671
:1019D0004FEAE57105EB51714FEAE101A5EBC10159
:1019E00001F1010101F0FF080B48006820B10A482D
:1019F000414602683846904700BF607810F0080FF3
:101A000006D00548406818B1B011034A51688847AC
:101A10000020BDE8F08100009400002038B50446A5
:101A200084B14FF020008DF800004FF028008DF8B1
:101A300001004FF030008DF802004FF038008DF8B3
:101A4000030004E0A32204216846FEF735FC6A4641
:101A5000042140F69E2002F0BBFB01F05FFF38BD81
:101A60003EB504464FF002008DF800004FF0CA006A
:101A70008DF801004FF0E3008DF802004FF00900EF
:101A80008DF803006A464FF004014FF0680002F041
:101A90009FFB4FF0A3008DF8000014F0400F0CD016
:101AA0004FF0C0008DF801004FF0C8008DF8020023
:101AB0004FF0C2008DF8030007E04FF0A3008DF84F
:101AC00001008DF802008DF8030014F4C07F0CD0E3
:101AD0004FF0C4008DF804004FF0CC008DF80500E5
:101AE0004FF0C6008DF8060007E04FF0A3008DF818
:101AF00004008DF805008DF806004FF0A3008DF866
:101B000007008DF808008DF809006A464FF00A01B9
:101B100040F6A72002F05CFB14F0030F04D04FF056
:101B200020008DF8000003E04FF0D8008DF8000091
:101B30006A46012140F6B62002F04AFB14F0200F5D
:101B400003D0012000F0C0F802E0002000F0BCF853
:101B500014F4C07F29D014F4807F10D04FF0B2006D
:101B60008DF800004FF08B008DF801004FF0B600AB
:101B70008DF802004FF09B008DF803000FE04FF04E
:101B8000B0008DF800004FF080008DF801004FF09C
:101B9000B4008DF802004FF090008DF803006A4603
:101BA000042140F6A22002F013FB14F0010F26D00E
:101BB0004FF0F8008DF800006A464FF001014FF435
:101BC0000B6002F005FBFA21072000F09FFC0720C4
:101BD00000F060FC012000F081FC642000F068FD52
:101BE0004FF4FA7000F07AFDC821354800F006FC89
:101BF000282000F023FC0A2000F036FC0AE04FF019
:101C0000D8008DF800006A464FF001014FF40B60D8
:101C100002F0DEFA14F0020F04D04FF0D9008DF874
:101C2000000003E04FF0D8008DF800006A46012163
:101C300040F23D7002F0CCFA14F0040F03D0012002
:101C400000F06EF802E0002000F06AF814F0100FC7
:101C500003D00120FFF7E2FE02E00020FFF7DEFEE6
:101C600044F008001749488101F058FE4FF0000089
:101C70001449887314F0400F04D00846807B00F1AB
:101C80000600887314F4C07F05D00E48807B00F1F5
:101C900006000C49887314F0140F05D00948807BA6
:101CA00000F110000749887314F0030F05D00548B0
:101CB000807B00F104000349887300203EBD0000D2
:101CC00009E3CA02940000203EB504466CB10EA19F
:101CD000D1E900208968CDE9002002916A460921F6
:101CE0004FF4976002F074FA3EBD0AA2D2E90010E8
:101CF0009268CDE9010200916A4609214FF497608C
:101D000002F066FAF0E70000B8AAB38DB4980D357A
:101D10005D000000B8AAAAAAB088C3C5C700000029
:101D200038B5044684B14FF0C0008DF800004FF084
:101D3000C2008DF801004FF0C4008DF802004FF092
:101D4000C6008DF8030004E08B2204216846FEF7EC
:101D5000B3FA6A46042140F6982002F039FA01F0FD
:101D6000DDFD38BD10B5C8234FF48062024940F64E
:101D7000F63001F049FC10BD4C5700082DE9F04F3A
:101D80008DB00746884615469946DDE9166B4FF03B
:101D90000004204630807B49887B5A4605A901F023
:101DA00019FD18B1601E0DB0BDE8F08F754840896F
:101DB00010F0140F77D09DF814004FEA00609DF8E2
:101DC000151040EA01409DF8161040EA01209DF8E8
:101DD000171040EA010028609DF818004FEA0060E3
:101DE0009DF8191040EA01409DF81A1040EA0120C0
:101DF0009DF81B1040EA010068609DF81C004FEA46
:101E000000609DF81D1040EA01409DF81E1040EA58
:101E100001209DF81F1040EA0100A8609DF82000F5
:101E20004FEA00609DF8211040EA01409DF8221021
:101E300040EA01209DF8231040EA0100E86004F127
:101E40001000C4B228684FEA2040019068684FEA49
:101E500020400290A8684FEA20400390E8684FEACB
:101E600020400490019800FB00F0029901FB010062
:101E7000039901FB0100049901FB010ABAF1706F9B
:101E800002DBBAF1885F08DD01F048FD4FF0000089
:101E900030804FF0FF3086E705E0B6F9000040F4EF
:101EA0008070308000BF3748408910F0400F2AD042
:101EB00005A904F10100085C095D40EA012000B2B7
:101EC000A8F8000005A904F10300095C05AA04F1C3
:101ED0000200105C41EA002000B2A8F8020005A947
:101EE00004F10500095C04F10400105C41EA0020E3
:101EF00000B2A8F8040004F10600C4B2B6F900006C
:101F000040F0080030801F48408910F4C07F27D07F
:101F100005A904F10100085C095D40EA012000B256
:101F2000388005A904F10300095C05AA04F1020048
:101F3000105C41EA002000B2788005A904F1050098
:101F4000095C04F10400105C41EA002000B2B88092
:101F500004F10600C4B2B6F9000040F07000308011
:101F60000848408910F0030F03D005A90819FFF7AE
:101F70001FFD00BF02F026FAC9F8000000BF0020D4
:101F800011E70000940000202DE9F04F8BB00646C9
:101F900001A801F09BF9BDF8047000200F22089001
:101FA00038460899FEF712F904460D464F48008955
:101FB00000F0030056F8200005904C48008910F00E
:101FC000040F03D00598C0F1000005904748008930
:101FD000C0F3C10056F8200006904448008910F074
:101FE000200F03D00698C0F1000006903F480089FA
:101FF000C0F3811056F8200007903C48008910F487
:10200000807F03D00798C0F1000007900598C117A2
:10201000A0FB048201FB042100FB05101E220A9094
:1020200040460A99FEF7E5F805900698C117A0FB0F
:10203000049201FB042100FB051A1E22484651466A
:10204000FEF7D7F806900798C117A0FB04B201FB72
:10205000042100FB05101E22099058460999FEF73D
:10206000C8F8079005984FEA10608DF808000598A9
:102070004FEA10408DF8090005984FEA10208DF8BE
:102080000A000598C0B28DF80B0006984FEA106060
:102090008DF80C0006984FEA10408DF80D00069858
:1020A0004FEA10208DF80E000698C0B28DF80F0090
:1020B00007984FEA10608DF8100007984FEA10401B
:1020C0008DF8110007984FEA10208DF8120007983C
:1020D000C0B28DF8130002AA4FF00C014FF4257026
:1020E00002F076F80BB0BDE8F08F000094000020FD
:1020F00030B585B0044618A207CA02AB07C3C82C86
:1021000003DD4FF0FF3005B030BD4FF0C80090FB4D
:10211000F4F0A0F1010085B24FEA15208DF800001F
:10212000E8B28DF801006A464FF0020140F2162035
:1021300002F04EF810B14FF0FF30E4E702AA0C2194
:1021400040F6C12002F044F810B14FF0FF30DAE75A
:10215000044884810020D6E7FEF2ABC4AAF1DFDF99
:10216000BBAFDFDF940000202DE9FF470446534852
:10217000008900F0030054F8200001904F480089C6
:1021800010F0040F03D00198C0F1000001904B48FB
:102190000089C0F3C10054F820000290474800892C
:1021A00010F0200F03D00298C0F1000002904348C5
:1021B0000089C0F3811054F8200003903F48008943
:1021C00010F4807F03D00398C0F1000003903C49D5
:1021D000019880FB015A1E2228465146FEF709F855
:1021E00001903749029880FB01671E22304639462C
:1021F000FDF7FFFF02903249039880FB01891E2200
:1022000040464946FDF7F5FF039001984FEA1060FC
:102210008DF8000001984FEA10408DF801000198F8
:102220004FEA10208DF802000198C0B28DF803002B
:102230006A464FF004014FF4747001F0C9FF20B1F9
:102240004FF0FF3004B0BDE8F08702984FEA10600D
:102250008DF8000002984FEA10408DF801000298B6
:102260004FEA10208DF802000298C0B28DF80300EA
:102270006A464FF004014FF4757001F0A9FF10B1E8
:102280004FF0FF30DEE703984FEA10608DF8000052
:1022900003984FEA10408DF8010003984FEA102090
:1022A0008DF802000398C0B28DF803006A464FF023
:1022B00004014FF4767001F08BFFC3E79400002017
:1022C00009E3CA0210B586B0044647A0006803902F
:1022D00046A00068029046A00068019045A00068F2
:1022E000009004F0030003A9085C8DF8140003A813
:1022F000C4F3C101405C8DF8150003A8C4F381113B
:10230000405C8DF8160004F0030002A9085C8DF80B
:10231000100002A8C4F3C101405C8DF8110002A8AE
:10232000C4F38111405C8DF8120005AA4FF003013F
:1023300040F2264001F04CFF18B14FF0FF3006B0DC
:1023400010BD04AA032140F22A4001F041FF10B160
:102350004FF0FF30F3E7019805900098049014F0D7
:10236000040F0BD09DF8140040F001008DF814000C
:102370009DF8100040F001008DF8100014F0200FBF
:102380000BD09DF8150040F001008DF815009DF868
:10239000110040F001008DF8110014F4807F0BD083
:1023A0009DF8160040F001008DF816009DF812000F
:1023B00040F001008DF8120005AA03214FF4886057
:1023C00001F006FF10B14FF0FF30B8E704AA032177
:1023D00040F2314001F0FCFE10B14FF0FF30AEE7AB
:1023E000054804810020AAE74CCD6C000CC92C00E4
:1023F000365676002646660094000020F8B505465D
:102400000E464FF47A7095FBF0F000FB06F44FEAAD
:1024100014608DF800004FEA14408DF801004FEA77
:1024200014208DF80200E0B28DF803006A464FF0E8
:1024300004014FF4AE7001F0CBFEF8BD38B5044690
:102440004FF0050094FBF0F084B24FEA24208DF8A1
:102450000000E0B28DF801006A464FF002014FF42F
:10246000AD7001F0B5FE38BD38B504464FF005003B
:1024700094FBF0F084B24FEA24208DF80000E0B223
:102480008DF801006A464FF002014FF4AC7001F084
:102490009FFE38BD38B504464FF00000009014F0A0
:1024A000010F04D09DF8000040F03000009014F0BF
:1024B000020F04D09DF8000040F00C00009014F0D2
:1024C000040F04D09DF8000040F0030000906A461D
:1024D00001214FF4A47001F07BFE38BD38B50446ED
:1024E000012C02DA4FF0010403E0042C01DD4FF06F
:1024F0000404A4F10100C0B200906A464FF001014B
:1025000040F24F1001F064FE38BD00002DE9FC4799
:1025100006460F4616F0070F02D0B7F5C86F03DD69
:102520004FF0FF30BDE8FC87384602F0ADFE814633
:102530005A4902F05FFD8046684600F09BFE9DF818
:102540000000022806D0042816D0082826D010281B
:1025500048D135E04FF08D41404602F0DDFE814626
:1025600002F05AFE84B24E49404602F0D5FE814642
:1025700002F052FE85B238E04FF08C41404602F046
:10258000CBFE814602F048FE84B24649404602F046
:10259000C3FE814602F040FE85B226E04FF08B413B
:1025A000404602F0B9FE814602F036FE84B23E4952
:1025B000404602F0B1FE814602F02EFE85B214E0E4
:1025C0004FF08A41404602F0A7FE814602F024FE09
:1025D00084B23649404602F09FFE814602F01CFE5E
:1025E00085B202E04FF0FF309CE700BF4FEA2420A5
:1025F0008DF80400E0B28DF805004FEA25208DF833
:102600000600E8B28DF8070016F0010F14D001AAF9
:1026100002214FF4EA7001F0DBFD10B14FF0FF3002
:1026200080E70DF1060202214FF4927001F0D0FD17
:1026300010B14FF0FF3075E716F0020F14D001AA69
:1026400002214FF4EC7001F0C3FD10B14FF0FF30E8
:1026500068E70DF1060202214FF4947001F0B8FD15
:1026600010B14FF0FF305DE716F0040F14D001AA4F
:1026700002214FF4EE7001F0ABFD10B14FF0FF30CE
:1026800050E70DF1060202214FF4967001F0A0FD13
:1026900010B14FF0FF3045E7002043E7000048430A
:1026A000000040460000C045000040450000C04416
:1026B00038B504464FF0050094FBF0F085B24FEAC0
:1026C00025208DF80000E8B28DF801006A464FF031
:1026D00002014FF4EF7001F07BFD38BD38B50446C0
:1026E0004FF0050094FBF0F085B24FEA25208DF8FD
:1026F0000000E8B28DF801006A464FF002014FF485
:10270000ED7001F065FD38BD7CB505462B49496883
:10271000087801AB4FF004024FF00D0100F0B6FB5A
:1027200008B107207CBD9DF80700C0F301109DF89B
:10273000041001F0E00140EAE1008DF800009DF88E
:102740000700C0F381009DF8051001F0E00140EAA8
:10275000E1008DF801009DF8070000F003009DF8EE
:10276000061001F0E00140EAE1008DF802004FF0B0
:1027700000041FE01DF8040020B94FF0000045F8E8
:10278000240014E00E4845F8240006E055F8240023
:102790000C4902F0C1FD45F824001DF80400A0F129
:1027A000010010F0FF000DF80400EFD100BF04F1AC
:1027B0000100C4B2032CDDDB0020B3E75800002089
:1027C0007B14AE3E1D5A843F2DE9F04F93B0054671
:1027D0000C4617464FF001008DF820004FF0000026
:1027E0008DF82100FE4A1268917CFD4A52681078EB
:1027F00008AB4FF0020200F05CFB20B14FF0FF305D
:1028000013B0BDE8F08FC820FDF770FE4FF0000058
:102810008DF82000F24A1268D17BF14A5268107894
:1028200008AB4FF0010200F044FB10B14FF0FF3055
:10283000E6E7EB4A12685179E94A5268107808AB2A
:10284000012200F036FB10B14FF0FF30D8E7E44A28
:102850001268917CE24A5268107808AB012200F0BD
:1028600028FB10B14FF0FF30CAE7DD4A1268D17D76
:10287000DB4A5268107808AB012200F01AFB10B155
:102880004FF0FF30BCE7D64A12681179D44A52683B
:10289000107808AB012200F00CFB10B14FF0FF30B4
:1028A000AEE74FF00C008DF82000CD4A1268117988
:1028B000CB4A5268107808AB4FF0010200F0F9FAE9
:1028C00010B14FF0FF309BE70F20FDF70FFEC4481B
:1028D000806A407A8DF82000C14A12689178C04A17
:1028E0005268107808AB012200F0E3FA10B14FF003
:1028F000FF3085E7BA48806A007A8DF82000B84A30
:1029000012685178B64A5268107808AB012200F07C
:10291000D0FA10B14FF0FF3072E73FB1B048806A93
:10292000807A40F0E0008DF8200004E0AC48806A36
:10293000807A8DF82000AA4A12689179A84A5268D4
:10294000107808AB012200F0B4FA10B14FF0FF305C
:1029500056E73FB1A248806AC07A40F0E0008DF8A7
:10296000200003E09F48C07A8DF820009C4A12683E
:10297000D1799B4A5268107808AB012200F099FA8D
:1029800010B14FF0FF303BE717B1C820FDF7AEFDA7
:102990004FF040008DF82000914A12681179904A5A
:1029A0005268107808AB4FF0010200F082FA10B1C3
:1029B0004FF0FF3024E74FF078008DF82000884A70
:1029C00012685179864A5268107808AB4FF00102BC
:1029D00000F06FFA10B14FF0FF3011E7814988899C
:1029E000FDF784FD4FF000008DF820007C4A12684E
:1029F00051797B4A5268107808AB4FF0010200F021
:102A000058FA10B14FF0FF30FAE6754A1268917A21
:102A1000734A5268107808AB022200F037FA10B1FE
:102A20004FF0FF30ECE69DF821009DF8201040EAC1
:102A3000012006904FF00C01069890FBF1F0C6B211
:102A40004FF00000A86068602860A06060602060AF
:102A5000079066E0624A1268D17A614A526810783B
:102A600008AB0C2200F012FA10B14FF0FF30C7E6AD
:102A70009DF821009DF8201040EA012000B2ADF839
:102A800010009DF823009DF8221040EA012000B2BA
:102A9000ADF812009DF825009DF8241040EA0120B1
:102AA00000B2ADF81400BDF9101020680844206091
:102AB000BDF91210606808446060BDF91410A06888
:102AC0000844A0609DF827009DF8261040EA0120E8
:102AD00000B2ADF808009DF829009DF8281040EAE2
:102AE000012000B2ADF80A009DF82B009DF82A10D5
:102AF00040EA012000B2ADF80C00BDF908102868CA
:102B000008442860BDF90A10686808446860BDF987
:102B10000C10A8680844A860079800F10100C0B232
:102B200007900798B04295DB2E4800680390D5F8CF
:102B300000804FEAE8701022129040461299FDF78B
:102B400045FBCDE900010023039AFDF765FB324602
:102B50000023CDE90401FDF75FFB286021480068F0
:102B60000390D5F804904FEAE9701022119048467E
:102B70001199FDF72BFBCDE900010023039AFDF726
:102B80004BFB32460023CDE90401FDF745FB6860AD
:102B9000144800680390D5F808A04FEAEA701022A4
:102BA000109050461099FDF711FBCDE9000100236C
:102BB000039AFDF731FB32460023CDE90401FDF70E
:102BC0002BFBA860074840680390D4F800B04FEA98
:102BD000EB7010220F9058460F99FDF7F7FA03E0BB
:102BE0005800002024570008CDE900010023039A73
:102BF000FDF712FB32460023CDE90401FDF70CFB83
:102C000020601E48406803906068C1171022CDE91B
:102C10000D10FDF7DBFACDE900010023039AFDF763
:102C2000FBFA32460023CDE90401FDF7F5FA6060B6
:102C3000124840680390A068C1171022CDE90B101C
:102C4000FDF7C4FACDE900010023039AFDF7E4FA89
:102C500032460023CDE90401FDF7DEFAA060A0684A
:102C6000002804DDA068A0F58030A06003E0A06823
:102C700000F58030A0600020C2E500002457000865
:102C80002DE9FC5F06460F464FF0000542494968B2
:102C9000087801AB4FF003024FF00D0100F0F6F899
:102CA00010B10720BDE8FC9F9DF8040000F01F0054
:102CB0008DF804009DF8050000F01F008DF8050058
:102CC0009DF8060000F01F008DF806004FF000048C
:102CD0005DE056F8240057F82410B0EB010B01D446
:102CE000594601E0CBF10001084602F0B5FA4FF079
:102CF0008F41009002F07EF9814601A8005D88B303
:102D00002649086802F0C0FA83465946244802F072
:102D100071F9804604E02349404602F0FDFA8046FE
:102D200001A8005DA0F1010010F0FF0001A9085505
:102D3000F1D14146484602F05DF983464FF07E519D
:102D400002F0EEFB82462AF0004B14488169584697
:102D500002F0B5FB19D24FF0010000FA04F040EA8E
:102D6000050512E0FFE70D480169484602F0A0FAA8
:102D700005D30A484169484602F0A1FB05D24FF04D
:102D8000010000FA04F040EA050504F10104032CF7
:102D90009FDB284686E700005800002024570008E3
:102DA00000B04C4554E3853F2DE9F04105460F4600
:102DB00014461E46FDF7FEFC10B90020BDE8F08168
:102DC000002141EA4501C8B2FDF7C2FCFDF740FD14
:102DD00018B9FDF71FFD0020F0E73846FDF7B8FCF5
:102DE000FDF736FDFDF7E6FC012101EB4501C8B218
:102DF000FDF7AEFCFDF72CFD0EE0FDF777FC307023
:102E0000012C02D1FDF754FC01E0FDF71FFC06F197
:102E10000106A4F10100C4B2002CEED1FDF7FAFCCA
:102E20000120CBE72DE9F04105460E4617469846AE
:102E3000FDF7C0FC10B90020BDE8F081002141EA97
:102E40004501C8B2FDF784FCFDF702FD18B9FDF796
:102E5000E1FC0020F0E73046FDF77AFCFDF7F8FCD6
:102E60004FF000040CE018F80400FDF771FCFDF7CA
:102E7000EFFC18B9FDF7CEFC0020DDE704F10104FA
:102E8000BC42F0DBFDF7C6FC0120D5E72DE9F0419F
:102E900004460D4616461F463B4632462946204606
:102EA000FFF782FF10B10020BDE8F0814FF0FF3046
:102EB000FAE72DE9F04104460D4616461F463B460B
:102EC000324629462046FFF7ADFF10B10020BDE88D
:102ED000F0814FF0FF30FAE770B50546284600F064
:102EE00011F8044605F1030000F00CF844EAC000B4
:102EF00084B205F1060000F005F844EA801084B2BF
:102F0000204670BD014691F90020002A02DD4FF0F5
:102F1000000024E091F90020002A02DA4FF00400BA
:102F20001DE091F90120002A02DD4FF0010016E0BA
:102F300091F90120002A02DA4FF005000FE091F923
:102F40000220002A02DD4FF0020008E091F9022081
:102F5000002A02DA4FF0060001E04FF00700704748
:102F600094B0FEF713FD00F06FFA9B490860084625
:102F70000068E0B9782001F0B9F8782000F040F955
:102F8000642001F05FF8FEF7EDFE9448FFF7A4FF20
:102F90000446FFF797F940F27310FEF761FD6420D5
:102FA000FFF7A6F801F054F9012000F035FF12E117
:102FB0000CA80DA912AB08AACDE900100EA910A803
:102FC000FEF7DCFEBDF8340010F4807F7ED0089858
:102FD00002F042F904464FF09D4102F00BF880499F
:102FE0000860099802F038F904464FF09D4102F05C
:102FF00001F87C4908600A9802F02EF904464FF067
:103000009D4101F0F7FF784908600B9802F024F920
:1030100004464FF09D4101F0EDFF7449086070488F
:1030200001684FF0804002F077F906906E48016821
:10303000069802F071F982466A4801684FF04040F4
:1030400002F06AF9069069480168069802F064F98E
:103050008346514601F060FF079001F031FF804642
:10306000FEF782F906464FF06632614B01F04EFCE6
:10307000044601F0D1F95F4908605B4801684FF0F0
:10308000804002F049F9039057480168039802F024
:1030900043F98246534801684FF0404002F03CF942
:1030A000039050480168039802F036F98346514670
:1030B00002F036FA81464FF07E5101F02DFF804636
:1030C00001F0FEFECDE90401454800E082E0016820
:1030D0004FF0804002F020F983464248016858468C
:1030E00002F01AF98146404801684FF0804002F032
:1030F00013F983463D480168584602F00DF98246AF
:10310000494601F009FF804601F0DAFE0446DDE998
:103110000423FEF77BFB4FF06632354BCDE9060109
:1031200001F0F4FB064601F077F9334908602F48B7
:103130000168006802F0F0F803902B48016800680D
:1031400002F0EAF8029027480168006802F0E4F80B
:10315000834623480168006802F0DEF85946019072
:1031600001F0DAFE8246029902F0DAF9814603990B
:1031700002F0D6F9804601F0A3FE04460D461B4836
:1031800001681748006802F0C7F8824616480168CF
:103190001448006802F0C0F88346514601F0BCFEB6
:1031A00081464FF0804102F0B7F8804601F088FE7A
:1031B000064622462B46FEF729FB4FF066320C4BA3
:1031C000CDE9040101F0A2FBCDE9060101F024F9EB
:1031D0000A49086000BFEBE6380000201400002018
:1031E0002000002024000020280000202C000020C7
:1031F00066A64C4044000020400000203C00002017
:1032000070B504464FF0000624F00104184890F809
:10321000240008B1002070BD1548807A10B94FF025
:10322000FF30F8E71248057C807A00EA0400104974
:1032300008740846007CA04202D04FF0FF3601E03F
:103240004FF0000614B90A48007D18B1012001F0C2
:1032500047F802E0002001F043F83CB100F05EFBCB
:1032600020B1034805744FF0FF30D4E73046D2E771
:103270005800002001461448407A30B1012808D097
:1032800002280AD0032810D10BE04FF0020008708A
:103290000EE04FF0040008700AE04FF008000870DC
:1032A00006E04FF01000087002E04FF0FF3070476A
:1032B00000BF0548C07C28B108784FEA40604FEA5B
:1032C000106008700020F2E7580000200146134803
:1032D000407A30B1012808D002280AD0032810D142
:1032E0000BE04FF4804008800EE041F69C700880AF
:1032F0000AE04FF48050088006E04FF40060088038
:1033000002E04FF0FF30704700BF0448C07C18B1A6
:1033100008884FEA600008800020F4E75800002089
:1033200001460348007C08704FF000007047000021
:103330005800002001461048007A30B1012808D01A
:1033400002280AD0032810D10BE04FF0FA000880C1
:103350000FE04FF4FA7008800BE04FF47A700880A9
:1033600007E04FF4FA60088003E04FF000000880A7
:1033700000BF00BF002070475800002001460E48E3
:10338000007A30B1012807D0022808D003280CD1D8
:1033900008E00A4808600BE00948086008E00948AE
:1033A000086005E00848086002E04FF0FF30704711
:1033B00000BF0020FBE7000058000020000003438E
:1033C00000008342333303423333834101461548BF
:1033D000C07A08281DD2DFE800F01D04080C101484
:1033E000181E4FF0BC00088019E04FF06200088002
:1033F00015E04FF02A00088011E04FF0140008801B
:103400000DE04FF00A00088009E04FF00500088049
:1034100005E000BF00BF4FF00000088000BF00BF04
:1034200000207047580000200146064890F824000C
:1034300010B14FF0FF3070470248C089088000206B
:10344000F9E70000580000201CB54FF080008DF80F
:1034500000006C4A1268917C6A4A526810786B4688
:103460004FF00102FFF725FD10B14FF0FF301CBDFA
:103470006420FDF73BF84FF000008DF80000614A32
:103480001268917C5F4A526810786B464FF00102D7
:10349000FFF70FFD10B14FF0FF30E8E7594A12680F
:1034A000917D584A526810786B460622FFF7EEFC71
:1034B00010B14FF0FF30DAE79DF805004FEAC07019
:1034C0004FEA50709DF8031001F0010140EA4100FD
:1034D0009DF8011001F0010140EA01048CB1012CBA
:1034E00003D121464748C17430E0022C04D14FF08B
:1034F00000014448C17429E000BF00BF4FF0FF3015
:10350000B5E7404A1268D1783E4A526810786B4657
:103510000122FFF7BBFC10B14FF0FF30A7E79DF889
:10352000000000F00F0424B900BF00BF4FF0FF30CF
:103530009DE7042C06D100BF00BF4FF001013148C8
:10354000C17403E04FF000012E48C1744FF0FF0139
:103550002C48817208462B4908720146294841725D
:10356000C1724FF6FF71C1814FF0FF010174817488
:103570004FF00101017380F822104FF0000180F834
:1035800023104175017500F10800C0F80E10C0F855
:103590001210C0F816101B4880F8241080F825106F
:1035A000C1844FF4FA6000F083FC10B14FF0FF309B
:1035B0005DE7022000F03EFB10B14FF0FF3056E710
:1035C0002A2000F0F7FC10B14FF0FF304FE7322017
:1035D00000F038FD10B14FF0FF3048E70020FFF752
:1035E0000FFE10B14FF0FF3041E7002000F06AFB02
:1035F00010B14FF0FF303AE7002000F077FD0020D7
:1036000035E70000580000202DE9F04385B005465D
:103610000E46904699462D4890F8250020B14FF06F
:10362000FF3005B0BDE8F08316B94FF0FF30F8E782
:103630004FF0000427E0281B102802DD4FF0100097
:1036400001E0A5EB040087B206EB040239462046F0
:1036500000F0BEFD10B14FF0FF30E2E701AA39469D
:10366000204600F01BF910B14FF0FF30D9E73019B8
:103670003A4601A9FCF7F4FD10B16FF00100D0E764
:1036800004EB070084B2AC42D5DB4FEA28208DF86A
:10369000000008F0FF008DF801000C4A1268917ECE
:1036A0000A4A526810786B464FF00202FFF701FC9D
:1036B00010B14FF0FF30B4E74FF00101034880F83C
:1036C0002510A0F826904FF00000AAE7580000202F
:1036D00038B50446282C02DD4FF0FF3038BDFCB968
:1036E000002000F02FFC4FF000008DF800004FF09C
:1036F00007008DF80100364A1268917C344A5268FE
:1037000010786B464FF00202FFF7D3FB10B14FF079
:10371000FF30E3E74FF000012D4801750846DDE773
:10372000012000F00FFC4FF020008DF80000012C6C
:1037300008D14FF000008DF801004FF0050000F0B7
:1037400039FC1DE0052C08DC4FF001008DF801006C
:103750004FF0050000F02EFC12E0142C08DC4FF0B6
:1037600002008DF801004FF00A0000F023FC07E092
:103770004FF003008DF801004FF0140000F01AFC28
:103780009DF801004FF0070101EB8010C0B28DF8E9
:1037900001000F4A1268917C0D4A526810786B46FE
:1037A0004FF00202FFF785FB10B14FF0FF3095E7B5
:1037B0004FF00801064881724FF0000101734FF08D
:1037C000010101754FF00000FFF71AFD002085E7A9
:1037D00058000020F8B504460F4616462E4890F8CB
:1037E000240010B94FF0FF30F8BD2B48807A10B993
:1037F0004FF0FF30F8E7284A1268917A264A52685B
:1038000010786B460222FFF741FB10B14FF0FF30FA
:10381000EAE79DF801009DF8001040EA0125A54265
:1038200005DA4FF0000030704FF0FF30DCE71A4847
:1038300040684088B5EB600F17DD174A1268517C6D
:10384000154A526810786B460122FFF71FFB10B132
:103850004FF0FF30C8E79DF8000010F0100F04D0C3
:1038600000F05CF86FF00100BEE70B4A1268D17AF5
:10387000094A526810783B46E2B2FFF707FB10B1E5
:103880004FF0FF30B0E795FBF4F0A0F1010030708D
:103890004FF00000A8E7000058000020F8B50446EB
:1038A0000D46164616B94FF0FF30F8BD1A48807A1B
:1038B00010B94FF0FF30F8E74FEA24208DF80000F0
:1038C000E0B28DF801009DF80100284412494968D2
:1038D0004989884202DD4FF0FF30E6E70E4A126860
:1038E000117E0D4A526810786B460222FFF7E1FA0A
:1038F00010B14FF0FF30D8E7074A1268517D064AF1
:10390000526810783346EAB2FFF7C0FA10B14FF0B0
:10391000FF30CAE70020C8E75800002008B5774804
:10392000807A10B94FF0FF3008BD4FF000000090D2
:10393000724A1268D17B714A526810786B464FF018
:103940000102FFF7B6FA10B14FF0FF30ECE76B4A17
:1039500012685179694A526810786B460122FFF764
:10396000A8FA10B14FF0FF30DEE7644A126811790F
:10397000624A526810786B460122FFF79AFA10B13A
:103980004FF0FF30D0E75D4890F8240000285AD06F
:103990004FF00C000090594A12681179574A52684A
:1039A00010786B464FF00102FFF783FA10B14FF029
:1039B000FF30B9E73220FCF799FD4FF0C0000090CE
:1039C0004E48807A10F0010F04D09DF8000040F0BE
:1039D00020000090494A12681179484A52681078CC
:1039E0006B460122FFF765FA10B14FF0FF309BE7FD
:1039F0004248407C18B14FF00200009002E04FF0C6
:103A0000000000903D4A1268D17B3C4A5268107811
:103A10006B460122FFF74DFA10B14FF0FF3083E7FC
:103A20004FF000000090354A12685179334A5268CD
:103A300010786B464FF00102FFF73BFA00285BD08D
:103A40004FF0FF3070E74FF0040000902B4A1268EF
:103A500011792A4A526810786B464FF00102FFF73D
:103A600028FA10B14FF0FF305EE72448807C20B97F
:103A70002248807A10F0010F03D14FF040000090EF
:103A800002E04FF0600000901C4A126811791B4A56
:103A9000526810786B460122FFF70BFA10B14FF015
:103AA000FF3041E73220FCF721FD1448407C18B17B
:103AB0004FF00100009002E04FF0000000900F4A2C
:103AC0001268D17B0D4A526810786B460122FFF7CD
:103AD000F0F910B14FF0FF3026E7084A126851792B
:103AE000064A52681078054B10330122FFF7E1F9BE
:103AF00010B14FF0FF3017E7002015E75800002005
:103B00002DE9F04F8DB083460F464FF002000C9028
:103B1000474890F8240028B1002000F07DF94FF0CC
:103B2000010601E04FF0000603A8FFF703FC05A81B
:103B3000FFF7A0FB01A8FFF749FC02A8FFF774FC00
:103B40003B4890F80AA004A8FFF7EAFB4FF00004F6
:103B500008E0002239465846FEF736FE00B903E079
:103B600004F10104022CF4DB00BF022C02D14FF05F
:103B700000052CE04FF0000408E0012206A909A886
:103B8000FEF722FE00B903E004F10104022CF4DB8D
:103B900000BF022C02D14FF0000518E006A93846FC
:103BA000FDF786FB00F0FF0809A95846FFF768F803
:103BB00000F0FF094FF00005B9F1000F01D145F009
:103BC0000105B8F1000F01D145F0020500BF4FF02B
:103BD000FF0017490872014615484172C1724FF63D
:103BE000FF71C1814FF0FF01817201744FF001013B
:103BF0000173BDF80C0000F05BF99DF8140000F0B3
:103C000019F8BDF8040000F0D5F9BDF8080000F07F
:103C100019FA504600F06AFA9DF81000FFF7F0FA22
:103C200016B1012000F0F8F828460DB0BDE8F08F7D
:103C30005800002038B504462148807A10B94FF06A
:103C4000FF3038BD022C06D0042C08D0082C0AD036
:103C5000102C10D10BE04FF0000000900EE04FF060
:103C6000080000900AE04FF01000009006E04FF0CE
:103C70001800009002E04FF0FF30E2E700BF10486C
:103C8000407A9DF80010B0EBE10F01D10020D8E799
:103C90000B4A1268D1790A4A526810786B460122A1
:103CA000FFF707F910B14FF0FF30CAE79DF80000A9
:103CB0004FEAE001024841724FF00000C1E7000006
:103CC0005800002038B504465248807CA04201D1FB
:103CD000002038BD002C48D04E4A126811794D4A58
:103CE000526810786B460122FFF7D0F810B14FF000
:103CF000FF30EEE79DF8000020F020000090454ADC
:103D000012681179434A526810786B464FF00102ED
:103D1000FFF7CFF810B14FF0FF30DAE70320FCF7E0
:103D2000E5FB4FF0020000903A4890F8220020B1E5
:103D30009DF8000040F080000090364890F8230085
:103D400020B19DF8000040F030000090314A126828
:103D5000117D304A526810786B460122FFF7A9F8AE
:103D6000002853D04FF0FF30B3E72A4A1268117988
:103D7000284A526810786B460122FFF787F810B185
:103D80004FF0FF30A5E72348807A10F0010F05D0EF
:103D90009DF8000040F02000009004E09DF8000035
:103DA00020F0200000901B4A12681179194A5268CD
:103DB00010786B460122FFF77CF810B14FF0FF300E
:103DC00087E70320FCF792FB124890F8220018B115
:103DD0004FF08000009002E04FF0000000900D488E
:103DE00090F8230020B19DF8000040F030000090D2
:103DF000084A1268117D074A526810786B46012202
:103E0000FFF757F810B14FF0FF3062E701488474B4
:103E100000205EE75800002038B50446234890F89B
:103E20002400A04201D1002038BD44B31F4890F8BF
:103E3000250010B94FF0FF30F6E7002000F050FAEF
:103E40000020FFF73FFF1949C88C00F0FBF84FF046
:103E5000000000901549496808786B464FF0010250
:103E60004FF02301FFF725F84FF001010F4880F8CC
:103E70002410084600F034FAFFF750FD14E000204B
:103E800000F02EFA0948007C00900849496808783B
:103E90006B4601222321FFF70CF84FF00001034885
:103EA00080F82410FFF73AFD0020BDE758000020FD
:103EB00038B504462248807A10B94FF0FF3038BD3B
:103EC000FA2C09D0B4F5FA7F0AD0B4F57A7F0BD07A
:103ED000B4F5FA6F10D10BE04FF0000000900EE047
:103EE0004FF0080000900AE04FF01000009006E04C
:103EF0004FF01800009002E04FF0FF30DFE700BF06
:103F00000F48007A9DF80010B0EBE10F01D10020BE
:103F1000D5E70B4A12689179094A526810786B46C6
:103F20000122FEF7C6FF10B14FF0FF30C7E79DF842
:103F300000004FEAE000024908724FF00000BEE7BF
:103F40005800002038B50446194890F82300A042D4
:103F500001D1002038BD1CB14FF03000009002E0CC
:103F60004FF0000000901248807C20B19DF80000C6
:103F700040F0020000900E4890F8220020B19DF819
:103F8000000040F080000090094A1268117D084A44
:103F9000526810786B460122FEF78BFF10B14FF08C
:103FA000FF30D7E7024880F823400020D2E7000026
:103FB0005800002038B504462148807A10B94FF0E7
:103FC000FF3038BDBC2C03DB4FF0010000901AE03D
:103FD000622C03DB4FF00200009014E02A2C03DB7C
:103FE0004FF0030000900EE0142C03DB4FF00400B0
:103FF000009008E00A2C03DB4FF00500009002E07F
:104000004FF0060000900E48C07A9DF800108842DC
:1040100001D10020D5E70A4A12689178084A52680F
:1040200010786B460122FEF744FF10B14FF0FF30CD
:10403000C7E79DF800100248C1720020C1E70000E8
:104040005800002038B504462748807A10B94FF050
:10405000FF3038BD244890F8240010B14FF0FF30F5
:10406000F7E72148007D50B134B1282C04DCE0B2E0
:10407000FFF72EFB0020ECE70020FFF729FB042CC4
:1040800002DA4FF0040404E0B4F57A7F01DD4FF466
:104090007A744FF47A7090FBF4F0A0F10100C0B292
:1040A0000090114A126851780F4A526810786B4696
:1040B0004FF00102FEF7FDFE10B14FF0FF30C8E7F0
:1040C0009DF8000000F101004FF47A7191FBF0F0CF
:1040D00081B20548C1810146C9894FEA6100FFF7F5
:1040E00069FF0020B5E700005800002038B50446FD
:1040F00014F0700F03D04FF00100009007E01CB1E6
:104100004FF00000009002E04FF0400000902F4A76
:104110001268917C2D4A526810786B460122FEF796
:10412000C8FE30B14FF00001284881724FF0FF30D7
:1041300038BD9DF8000020F04001244801734FF085
:104140000000009014F0400F04D19DF8000040F0F2
:104150000400009014F0200F04D19DF8000040F0FE
:104160000200009014F0100F04D19DF8000040F000
:104170000100009014F0080F04D19DF8000040F0F9
:1041800038000090114A1268D17C104A52681078A9
:104190006B460122FEF78DFE30B14FF000010B4857
:1041A00081724FF0FF30C3E724B1082C02D0002009
:1041B000FFF7C8FE054884724FF0000101754FF00B
:1041C0003200FCF793F90020B2E70000580000200D
:1041D000F8B504460D46164616B94FF0FF30F8BD47
:1041E0001A48807A10B94FF0FF30F8E74FEA2420E0
:1041F0008DF80000E0B28DF801009DF80100284420
:10420000124949684989884202DD4FF0FF30E6E7EC
:104210000E4A1268117E0D4A526810786B460222CF
:10422000FEF747FE10B14FF0FF30D8E7074A12689B
:10423000517D064A526810783346EAB2FEF739FEDD
:1042400010B14FF0FF30CAE70020C8E75800002047
:1042500070B588B002A905A8FFF752FC0446072CE8
:104260003CD101A8FFF78AF8059800F0F5FF064653
:10427000019901F051F8054600F0B2FF059006984B
:1042800000F0EAFF0646019901F046F8054600F005
:10429000A7FF0690079800F0DFFF0646019901F09E
:1042A0003BF8054600F09CFF079005A8FDF75CFF72
:1042B0006846FFF70BF8BDF80010029848430290DB
:1042C000BDF80010039848430390BDF8001004980F
:1042D0004843049002A8FDF757FE00BF08B070BD28
:1042E00038B50446234890F82400D0B11CB14FF0F3
:1042F0000200009002E04FF0000000901D4A12689A
:10430000D17B1C4A526810786B460122FEF7D1FD22
:1043100010B14FF0FF3038BD9DF8001015484174C2
:1043200025E01448807A10B94FF0FF30F3E724B14C
:104330001048407C08B10020EDE71CB14FF00100AF
:10434000009002E04FF0000000900A4A1268D17B12
:10435000084A526810786B460122FEF7AAFD10B198
:104360004FF0FF30D7E79DF800100248417400205D
:10437000D1E70000580000202DE9F04106460F4625
:1043800000F0CEFB0D46040018BF0120284320F0AA
:104390000040C0F17F6010F1E0400FD5002E14BF47
:1043A00001200020384320F00040C0F17F6000F180
:1043B000E0400028A4BF0120FCF705F8204629466C
:1043C000BDE8F0814FF0E02040694FF0E0218969BD
:1043D000401A04498968B0FBF1F0024909680844B1
:1043E00070470000840000204FF0E02040694FF04B
:1043F000E0218969401A07494968B0FBF1F0054A94
:1044000012684FF47A73A2FB0332C01842F1000124
:10441000704700008400002021F00042A2F16052A9
:10442000B2F5801F01F0004328BFD2F17F6C0BD999
:104430005FEA001C43EAC20242EB507018BF7047AB
:1044400028BF20F001007047B2F5801FBCBF18469E
:1044500070474FEA410C1CF5001F02D2084601F0DC
:1044600029B870B500F0FCFA00000089FFF7F6BF2C
:104470004FF00040A0F580007047000010B591EAB1
:10448000030F48BF83F0004300F13884841A71EBB6
:10449000030C05D2121943EB0C03001B61EB0C015A
:1044A000DFF824E14FEA1154A4EB135C1EEA430F3A
:1044B00018BF9EEA445F73D023EA0E03DCF1200E9E
:1044C00021EA045143F4801332D322FA0CFE10EB9C
:1044D0000E0023FA0CFE41EB0E01CCF1200E03FA84
:1044E0000EFE10EB0E0051F10001B1F5801FCCF172
:1044F000200E32D201EB045112FA0EF2BDE8104048
:1045000058BF7047401C38BF5FEA420218BF70476F
:10451000002814BF20F0010041F100014FEA4103DF
:1045200013F5001F38BF7047A1F1C04100F0E6BA93
:10453000012A43EB0302ACF1200CDCF11F0E32BF69
:104540004FF0000E23FA0CF310EB030041EB045183
:10455000B4EB115FD0D0A1EB045101F580114908F3
:104560005FEA300001EB04510ED350F1000038BF78
:1045700012FA0EFE08D1BDE81040C9E7401C38BF52
:104580005FEA4202CAD1C3E7BDE810404FEA4103E7
:1045900013F5001F38BF7047A1F1C04100F0AEBA5B
:1045A0009EEA445F08D011EA5E0FBDE8104004BFE8
:1045B00001F0004100207047BDE8104070B500F0E8
:1045C0004FFA00BF64FBBE3E0000E0FF02494FF01F
:1045D000000001F01AB800BF0000F87F2DE9C041CB
:1045E00030B4DFF8A0C23CEA111418BF3CEA13143F
:1045F00000F0EC8081EA03051CEA111444EAD5744A
:1046000018BF1CEA131500F0C780A4EB05044FF097
:10461000004545EAC12145EAC32341EA505143EA36
:10462000525304F17F74994204F500344FEAC020DC
:104630004FEAC22208BF904200F09C804FEA136507
:104640000FF24016765D4FEA134506FB05F7C7F1FA
:10465000807706FB07F74FEAD737A7FB0368764258
:10466000C8F58038A7FB06CE38BFA8F1010807FBC4
:1046700008E64FF0000EA6FB028CE6FB03CEDCF151
:10468000000CCEF1004E38BFAEF1010EA6FB0C5867
:104690004FF000074FF00005E6FB0E87A1FB08C6B0
:1046A000A0FB07CE16EB0E0645F10005E1FB076502
:1046B00015F1E04E7EBFA4F580345FEA46066D41F9
:1046C00016F1800745F100054FEA17274FEA066605
:1046D00047EA0567A6F1DE46B6F1805F4FEA152589
:1046E0001FD9384624F0010C05EBC471BCF1FE6FF4
:1046F00001EB0C1102D8F0BCBDE8008124425CBF84
:1047000001F5801E9EEAC47F02D4F0BCBDE80081A2
:10471000244238D4F0BCA1F1C041BDE8004100F012
:10472000EDB94FEAD22242EA43524FEAD323A7FB24
:1047300002864FEAD02040EA415007FB03661EEA9A
:104740000E0F4FEAD12105FB026658BFA6EB0056BB
:10475000B6EB00564FEA520E4EEAC37E18EB0E0E31
:1047600056EB530EBDD518EB02085E417F1C55F188
:104770000005B6E74FF480154FF000074FF0000634
:104780004FF00008ADE7F0BC4FF0000001F1C04170
:1047900001F00041BDE8008111EA0C1F0CEA13157D
:1047A00000D00CE013EA0C1F00F025804FF0000051
:1047B000F0BC81EA030101F00041BDE80081F0BCDA
:1047C000BDE8004181EA030100F098B9F0BCBDE802
:1047D000004170B500F044F9097EFC3E00F007B8D6
:1047E00081EA03014FF0000001F00041704781EAC7
:1047F000030100F083B9F0BCBDE800414FF00000B8
:1048000021497047FFFDFBF9F7F5F4F2F0EEEDEB0F
:10481000E9E8E6E4E3E1E0DEDDDBDAD8D7D5D4D3BE
:10482000D1D0CFCDCCCBCAC8C7C6C5C4C2C1C0BF0A
:10483000BEBDBCBBBAB9B8B7B6B5B4B3B2B1B0AF10
:10484000AEADACABAAA9A8A8A7A6A5A4A3A3A2A1F4
:10485000A09F9F9E9D9C9C9B9A99999897979695AF
:1048600095949393929191908F8F8E8E8D8C8C8B4B
:104870008B8A8989888887878685858484838382D3
:10488000828181800000FF070000F87F4FEA11530A
:10489000A3F58063D3F11E03A8BFD3F1200C08DB7E
:1048A0004FF0004242EAC12252EA505232FA03F07B
:1048B000704709420BD4102BC4BF0020704703F58A
:1048C000787CBCF1FF3F05D04FF0FF3070474FF0D0
:1048D0000000704770B500F0C3F800BF4992248013
:1048E00000207047F0E7B0FA80F310FA03F10AD025
:1048F000C3F11D0303F580634FEA41504FEA0352B1
:1049000002EBD12170474FF000007047DFF848C13B
:1049100070B51CEA111E1EBF1CEA13159EEA0C0F8F
:1049200095EA0C0F00F06F8081EA030423EA4C1330
:104930004EEAD47E21EA4C1141F4801143F48013F5
:10494000AE44A1FB024CA0FB0365AEF17F7E36199D
:1049500055EB0C05A1FB034C4CF10003A0FB021C22
:1049600016EB0C06654153F10003094218BF46F0EF
:10497000010613F4007F0BD14FEA03314FEA0530F3
:10498000340341EA155140EA16506FF003020AE081
:104990004FEAC3214FEAC520F40241EA555140EAEB
:1049A00056506FF0020202EB2E4201EB025585EAEF
:1049B000CE710AD05FEA440C18BF24F0004450F1D5
:1049C000000041F1000120EAD47040F2FE7C624513
:1049D00000D270BDA84214BF4FF080444FF0404455
:1049E000002E08BF0024BEF1806FA8BFA1F1C04116
:1049F000BDE8704080F282804FF0000001F1C041BC
:104A000001F0004170479EEA0C0F0CEA131518BF25
:104A100095EA0C0F06D04FF0000081EA030E0EF06D
:104A2000004170BD00F01CF88900013E00F007B89D
:104A300000F009B84FEA430C5FEA5C5C08D081EAF9
:104A4000030100F05BB84FEA410C5FEA5C5CF6D111
:104A50004FF00000014970470000FF070000F87F99
:104A60000EF1020E2EF0030E5EF8046B364205D4F2
:104A7000012A43EB030515F5001F12D8012841EB6D
:104A8000010C1CF5001F0CD80ED14FEAD17C15F596
:104A9000001F0CEB4C0C0CF1020C08BF4CEBD37C50
:104AA00004E04FF0080C01E04FEAD37C0CEB4C051E
:104AB00026FA05F606F00706B6F1040C06D20EEB50
:104AC000860CBDE870404CF0010C6047DFE80CF04C
:104AD000090B02024FF000414FF00000A1F5002148
:104AE00070BD19461046012851EB010418BFD4F5DA
:104AF000001484BF002001F0004170BD0808A0F53B
:104B000000114FEA3101704791EA030F10B581F0AF
:104B100000413FF5BBAC83F0004300F0EFB800006C
:104B20002DE9F04101F5801CBCF5001FC0F2C380E7
:104B30004FEA115C21EA0C510CF1FD0C41F480119B
:104B40005FEA5C0C0CF5C07C01D3400049413DA4F8
:104B5000890241EA905187028E0E0A0CA45D04FB83
:104B600004F602FB06F6C6F14046A4FB0662F60D0B
:104B700046EA422606FB06F4A4FB01235242C3F197
:104B8000404338BF5B1EA6FB02420024E6FB032421
:104B9000D20B42EA4446A6FB0623A1FB02E2A3FB9A
:104BA00007E4A4184FF0000252F10002E3FB0142B7
:104BB0006442C2F1404E38BFAEF1010EA6FB0423A1
:104BC0004FF00002E6FB0E32A2FB03464FF000045A
:104BD000B61954F10004E2FB0264A1FB06E6A4FB53
:104BE00007E816EB08064FF0000858F10008E4FB50
:104BF00001687642C8F1405838BFA8F10108A2FB0D
:104C000006E4A3FB08E52D194FF0000454F100045D
:104C1000E2FB0854A1FB05E6A7FB04E818EB060835
:104C20004FF0000656F10006E1FB048618F120055E
:104C300056F10006A809A8F11B08B10908F03F08C1
:104C4000B8F10A0F40EA86601CD901EB0C51BDE8AF
:104C5000F08100BFFCF5EEE8E2DDD8D3CFCBC7C3CF
:104C6000C0BDB9B6B4B1AEACA9A7A5A3A19F9D9B89
:104C70009A9896959392908F8D8C8B89888786854C
:104C800084838281A0FB006800FB01F208EB4208EC
:104C9000B8EB872807D5341858EB0104D5D5401C4C
:104CA00051F10001D1E7341A78EB0104CDD4401E54
:104CB00071F10001C9E75FEA4C0C5FEA9C5C0DD121
:104CC00005D34FF0000001F00041BDE8F081BDE8E0
:104CD000F04170B5FFF7C4FE6DDBFFBEBDE8F041EB
:104CE0004FF00000004970470000F87F10B591EACE
:104CF000030F48BF83F000433FF5C8AB841A71EB44
:104D0000030C07D212198CF0004C43EB0C03001B70
:104D100061EB0C01DFF8A4E14FEA1154A4EB135C42
:104D20001EEA430F18BF9EEA445F00F0B08023EAFA
:104D30006E03524221EA0451C3EB6E0338BF5B1E7F
:104D4000DCF1200E25D322FA0CFE10EB0E0043FA04
:104D50000CFE41EB0E01CCF1200E03FA0EFE10EB1F
:104D60000E0051F10001CCF1200E29D412FA0EF2FE
:104D700001EB0451BDE8104058BF7047401C1CBFF8
:104D8000B2F1004F704700280CBF491C20F0010011
:104D9000704712EB020E43EB030218BF4FF0010EF7
:104DA0004EEA4202ACF1200CDCF11E0E54D943FA5B
:104DB0000CFE10EB0E0051F1FF31CCF11E0ED5D5DB
:104DC0000EF1010E12FA0EFE404141EB010101EB22
:104DD000445C5FEA5C5C10D910EBDE7001EB0451BF
:104DE00038BFBEF1004FBDE8104018BF7047002823
:104DF0000CBF491C20F00100704730D24FEAD42C80
:104E000011F5001124F400641BD0B1FA81F20B3AC1
:104E1000A41AA41ED2F12003914030FA03F31943DF
:104E2000904001EBCC71002C01EB0451BDE8104027
:104E3000A8BF704701F1C0414FF0000001F00041F0
:104E40007047B0FA80F310FA03F100D110BDE41AF4
:104E5000173C4805C90AE4E701EB045110BD4910AD
:104E600001EB0451BDE810404FEA300002E04FF082
:104E7000000170474A0008BF0042F8D0B2F5001F99
:104E800028BF704701F000414FF0000070479EEAD4
:104E9000445F07D011EA5E0FBDE8104004BF002157
:104EA00000207047BDE8104070B5FFF7D9FD00BF86
:104EB00040DFF63E83F00041104670470000E0FFFF
:104EC00043004FEAD30C4FEA3C0C43401FBF40075E
:104ED0000CF1605113F0FE4F70471CF0006F03D1CE
:104EE00000200CF0004170470CF0004343EA507082
:104EF00010B540EACC0000F090FA00BF000000922C
:104F00004FEA0001FFF7FABD4FF000414FF00000FB
:104F1000A1F500217047000090EA010F48BF81F021
:104F2000004100F10483421A3CBF801A89184FEAFD
:104F3000D0524FF07F4C1CEA410FA2EBD15318BF67
:104F40009CEA026F00F03B804FF0004C4CEA0020DE
:104F50004CEA012121FA03FC10EB0C0C1ED202F1E9
:104F6000FF325FEA1C2040EBC25038BF70471CF094
:104F70007F0F4FEA400C18BFBCF17F4F38BF70471E
:104F8000C3F12003994008BF20F00100BCF17F4F1E
:104F900038BF7047A0F1C04000F08CBA4FEA3C0027
:104FA000000A40EBC25028BF1CF0FF0F4FEA400C34
:104FB000E6D018BFBCF17F4F38BF7047EAE79CEAE4
:104FC000026F05D010EA5C0F08BF00F00040704788
:104FD00010B500F022FA00BF64FBBE3E401058BF7F
:104FE000C0F14040491058BFC1F140418142EFF348
:104FF000008070474FF47F0C1CEAD0121EBF1CEAE1
:10500000D11392EA0C0F93EA0C0F00F0858090EA1E
:10501000010F48BF42F4807240F4000C41F40000DC
:105020002CF07F4120F07F4000B58142A2EB0302CB
:105030000FF2081CACEB504EC0F100009EF800E0EF
:105040004FEA4E0E00FB0EFC38BF49004FEA2C1C05
:1050500002F5FA020CFB0EF34FEACE1E4FEA112CBA
:105060004FEAC1210EEB635E42EB22420EFB0CFCC9
:105070004FEA1C5300FB03114FEA112C4FEA013198
:105080000EFB0CFC4FEADC4C00FB0C11C14228BFAC
:1050900009184CEB03335DF804EB10EB410143EBD3
:1050A000C250B2F57C0F38BF704729D512F0F00F0F
:1050B0001CBF00F1C04000F00040704700818283B7
:1050C0008485868788898B8C8D8E8F919293959617
:1050D00097999A9C9D9FA0A2A3A5A7A8AAACAEB0A1
:1050E000B2B3B5B7B9BCBEC0C2C5C7C9CCCED1D4A6
:1050F000D7D9DCDFE2E6E9ECF0F3F7FAFE000000D6
:105100004FEA400C0CF1807CBCF17E4F28BF704709
:10511000B0F1C04000F0CEB990EA010F0CEAD11313
:1051200048BF42F48072624538BF634507D213F42A
:105130007F0F16D080EA010000F00040704710B5E4
:1051400000F06BF9097EFC3E00F005B880EA010032
:1051500000F00040704780EA010000F0004000F0DD
:10516000A9B912F47F0F04BF0248704780EA01001A
:1051700000F0A0B90000C07F50EA010C00F11380DC
:105180001CF5000F58BFBCF5000F01D488427047D2
:1051900007D710F5000F58BF11F5000F15D488423E
:1051A0007047894270471CF5000F04D5BCF5000F0D
:1051B000F7D5814270474FF0807C1CEB400F38BF21
:1051C0001CEB410F01D28142704710B500F025F968
:1051D000922449004FF000504FF08051FFF7FEBE7F
:1051E00041000B0ED3F19E0208D950F400034FEAA0
:1051F000032323FA02F048BF4042704710B500F085
:105200000CF900BF49922480002070476FF00042E3
:1052100082EA200070470000C10DD1F19E0206DB3A
:105220004FEA002343F0004323FA02F070470042A4
:1052300007D54FEA4001B1F1FE4F02D24FF0000016
:10524000704710B500F0E9F84992248000207047BB
:105250006FEA20007047000010F0004148BF404254
:10526000B0FA80F310FA03F2C3F19D030BD051EAB8
:10527000C35101EB1220530638BF704700F1010003
:1052800008BF20F001007047B0FA80F310FA03F273
:10529000C3F19D030AD0D90501EB1220530638BF94
:1052A000704700F1010008BF20F0010070470000C6
:1052B00050EA010C00F113801CF5000F58BFBCF53B
:1052C000000F01D48842704707D710F5000F58BF70
:1052D00011F5000F15D488427047894270471CF5BC
:1052E000000F04D5BCF5000FF7D5814270474FF091
:1052F000807C1CEB400F38BF1CEB410F01D2814278
:10530000704710B500F089F8922449004FF0005022
:105310004FF08051FFF762BE4FF47F0C1CEAD012B1
:105320001EBF1CEAD11392EA0C0F93EA0C0F00F097
:10533000478090EA010F48BF42F480724FF0004C62
:105340004CEA00204CEA012102EB0302A0FB01130E
:10535000A2F50002002918BF43F001035B0028BF3B
:105360004FEA330342EB22425FEA132C4CEBC2506C
:105370002EBFBCEB436FB2F57C0F70474FEA036C56
:10538000BCF1004F08BF20F00100B2F57C0F38BF20
:1053900070470BD582F0FF0212F5803FC8BF7047FF
:1053A00000F1C040D8BF00F00040704700F5000C8D
:1053B0005FEA4C0C48BF7047B0F1C04000F07AB8CB
:1053C00090EA010F0CEAD11348BF42F480726245A3
:1053D00038BF634504D280EA010000F00040704706
:1053E00010B500F01AF800BF8900013E00F007B8C0
:1053F00000F009B85FEA410C5FEA1C6C08D080EA53
:10540000010000F057B85FEA400C5FEA1C6CF6D16F
:105410004FF00040A0F5800070470EF1020E2EF014
:10542000030E5EF8044B244204D44FEA4102B2F169
:105430007F4F11D84FEA4003B3F17F4F0CD80ED104
:105440004FEAD07CB2F17F4F0CEB4C0C0CF1020C0C
:1054500008BF4CEBD17C04E04FF0080C01E04FEAB0
:10546000D17C0CEB4C0324FA03F404F00704B4F1F0
:10547000040C06D20EEB840CBDE810404CF0010C7D
:105480006047DFE80CF0070802024FF00040A0F58B
:10549000800010BD0846420018BFD2F1807288BF5C
:1054A00000F0004010BD10B5FBF712F84FF00001FE
:1054B000016010BDFF2141EAD050C005704751EA9C
:1054C000000C00F113801CF5000F58BFBCF5000F55
:1054D00001D48142704707D711F5000F58BF10F56E
:1054E000000F15D481427047894270471CF5000FA8
:1054F00004D5BCF5000FF7D5884270474FF0807C8B
:105500001CEB410F38BF1CEB400F01D288427047A3
:1055100080EA010081EA000180EA0100FFF7F1BEA4
:1055200090EA010F48BF81F000413FF5FCAC421A00
:1055300004D882F00042A0EB020011444FEAD0529E
:105540004FF07F4C1CEA410FA2EBD15318BF9CEAED
:10555000026F4AD04FF0004C4CEA00204CEA012187
:1055600021FA03FCB0EB0C0C0FD412F0FE0F36D076
:105570005FEA4C001DD5001240EBC25038BF7047A7
:105580001CF03F0F18BF70470BE0A2F101025FEA69
:105590001C2040EBC25038BF70471CF07F0F18BF73
:1055A0007047C3F12003994014BF401E20F0010052
:1055B000704780084FEA122308BF7047B0FA80FC9A
:1055C000A2EB0C02CCF1280C60FA0CF093EA122F3B
:1055D00004BF00EBC25070474FEAC3707047130A14
:1055E0005FEADC1008BF7047F6E79CEA026F04D060
:1055F00010EA5C0F08BF0020704710B5FFF70DFFE1
:1056000040DFF63E81F0004070470CF00F03092B9D
:1056100008BF082000F059800A2B0BD0082B18BFB8
:10562000704708BF1CF0400F0AD04FF000004FF049
:10563000000170471CF0400F18BF4FF0004070474A
:105640001CF0100F08D020F0704300F07F4242EAB7
:10565000D3014FEA4370704700F0604021F07F4271
:1056600042EA000201F07F4040EA727070474FF05A
:10567000FF0C4CF4E06C1CEA11531CBF9CEA030CB9
:105680009445C2BFDA4201EB02517047002B0DD0A6
:10569000BCF1000F0FD0002A01F00041A4BF41F07F
:1056A000E04141F07F614FF00000704701F00041A0
:1056B0004FF00000704750EA01334FF09B0C18BFC9
:1056C0004CF0806C7EF482AF70471CF4801F11D0C8
:1056D0001CF4E02F03D06FEACC31490070474FF043
:1056E0004050EFF3008222F0704242EA000282F35F
:1056F000008870474FF00000704700006800000409
:1057000076005401F7FD000175191A0C6A231B1C61
:105710001F207274433B4138393A6B6C376F062453
:105720006D6E70008300000000080000000100188A
:1057300032000500000020410000D242295C0F3EEB
:105740009A99993E3333733F295C0F3E00007000F5
:105750000000002400000002000300000065005467
:10576000FFEF0000FA80000B12820001030C30C32F
:105770000E8C8CE914D5400213710F8E3883F88398
:105780003000F883258EF8833000F883FFFFFFFF99
:105790000FFEA9D6240004001A8279A10000003C63
:1057A000FFFF00000010000038836FA2003E0330AE
:1057B0004000000002CAE3093E8000002000000013
:1057C000000000004000000060000000000C00002D
:1057D000000C186E000006920A16C0DFFFFF02568A
:1057E000FD8CD377FFE1C496E0C5BEAA000000009F
:1057F000FFFF0B2B0000165700000359400000006C
:1058000000001DFA00026C1D000000003FFFDFEBEE
:10581000003EB3B6000D227800002F3C00000000CF
:10582000001942B5000039A20000B365D90E9FC926
:105830001DCF4C3430000000500000003BB67AE829
:105840000064000000C8000000000000100000001C
:105850001000FA921000225E000D229F000100004D
:1058600000320000FF46000063D40000100000007A
:1058700004D6000004CC000004CC0000000010722C
:1058800000000040000000000000000000060002D0
:105890000005000700000000006400000000000098
:1058A000000000050005006400200000000000006A
:1058B0000000000000004000000003000000003273
:1058C000F8980000FF650000830F0000FF9BFC00BC
:1058D00000000000000000000000000000000000C8
:1058E00000000000000000000000000000000000B8
:1058F0000000000000000000000010004000000058
:10590000000000060000B26A000200000001FB83F4
:105910000068000000D9FC007CF1FF83000000005B
:1059200000650000006403E8006400280000002512
:105930000000000016A00000000010000000100091
:10594000002F0000000001F40000100000280000FB
:10595000FFFF4581FFFFFA72000000000000000019
:10596000004400050005BAC6004778A20000000107
:105970000000000000000600000000140000254D9B
:10598000002F706D000005AE000C02D0000000007A
:10599000000000000000000000000000001B0000EC
:1059A0000000000000000000000000000064000093
:1059B00000080000000000000000000000000000DF
:1059C00000000000000000000000000000000000D7
:1059D00000000000000000000000000000000000C7
:1059E00000000000000000000000000000000000B7
:1059F00000000000000000000000000000000000A7
:105A0000000000000000000000000000001B00007B
:105A10000000000000000000000E000E00000AC799
:105A20000004000000000032FFFFFF9C00000B2B71
:105A3000000000020000000100000064FFE500001B
:105A40000000000000000000000000000000000155
:105A500000000000000100000000000000018000C4
:105A60000001800000018000002426D30000000017
:105A700000000000000600100096003C000000003E
:105A80000000000000000000000000000C0A4E684A
:105A9000CDCF770950166759C619CE820000000095
:105AA00000000000000000000000000000000000F6
:105AB0000000000017D78400030000000000000071
:105AC00000000000C7938F9D1E1B1C1900000000E2
:105AD00000000000000000000000000000000000C6
