:020000040800F2
:10000000280D00200101000841380008FD290008E2
:10001000C1330008B11100086D5100080000000054
:100020000000000000000000000000004D4000083B
:10003000151C0008000000000D3C00087D48000869
:100040001B0100081B0100081B0100081B01000820
:100050001B0100081B0100081B0100081B01000810
:100060001B0100081B0100081B0100081B01000800
:100070001B0100081B0100081B0100081B010008F0
:100080001B0100081B0100081B0100081B010008E0
:10009000655100081B0100081B0100081B01000836
:1000A0001B010008514900081B0100081B01000842
:1000B0001B0100081B0100081B0100081B010008B0
:1000C0001B0100081B0100081B0100081B010008A0
:1000D0001B0100081B0100081B0100081B01000890
:1000E0001B0100081B0100081B010008DFF80CD0F1
:1000F00000F000FC004800479D5F0008280D00202C
:100100000648804706480047FEE7FEE7FEE7FEE7B1
:10011000FEE7FEE7FEE7FEE7FEE7FEE78D480008A4
:10012000ED000008F0B480EA0102D40F4200B2EB07
:10013000410F02D20246084611464A0042D0C30D82
:10014000DDB2C1F3C752AD1A202D35DAC1F3160165
:1001500041F4000204B15242C5F1200602FA06F150
:100160002A411044B3EBD05F23D0C4B1012DA0EBE2
:10017000C35009DCF0BC4FF0004202EAC352DBB2CC
:1001800000F5000000F07ABA400000F1807000EB4A
:10019000C350A0F1807040EAD170490009E04908DD
:1001A00041EAC071A0EBC35000F50000400800EB2D
:1001B000C350F0BC00F059BA6142012202EB410188
:1001C000001BF6E7F0BC704781F00041AAE780F021
:1001D0000040A7E780EA010210B502F000434000AA
:1001E00022D04A001FD0010E01EB1261C0F356006D
:1001F000C2F3560240F4000042F40002A0FB0220C9
:1002000000047F39140400D0401C50EA124001D48D
:100210004000491EC2B20C0604EBD010401C40083E
:10022000802A02D003E0002010BD20F00100002948
:1002300000DA0020184310BD30B480EA010202F059
:10024000004530F0004221F0004013D090B1C30DC2
:10025000D40DC2F31601C0F31600E41A41F40001F4
:1002600040F400027D34914201D3641C00E0490057
:10027000002C02DA30BC002070474FF4000000234D
:10028000914201D3891A034340084FEA4101F7D153
:1002900051B1914202D14FF0004105E002D24FF03E
:1002A000010101E06FF0010103EBC450284430BCB0
:1002B00000F0DBB92DE9FE4F804681EA0300C00F54
:1002C0000C46009021F0004123F00045B8EB0200FD
:1002D000A94105D24046214690461C460B4602469F
:1002E00023F00040104347D0270DC7F30A00C3F3A3
:1002F0000A510290401A019040286BDAC3F31300B0
:1003000040F4801B0098924620B10023D2EB030AF0
:1003100063EB0B0B01985946C0F14002504600F0C8
:1003200073F906460D4650465946019A00F08BF97E
:1003300010EB08006141002487EA115284EAE77358
:100340001A4340D0009A62B3019A012A4FEA075239
:1003500015DC001B61EB02014FF0004202EA07527C
:10036000CDE90042001C41F5801132462B4600F0D9
:10037000ECF903B0BDE8F08F40462146F9E7001BD9
:1003800061EB0201001C41F5801300185B4120184D
:10039000A2F5001747EB030140EAD570B6196D418D
:1003A00011E06D084FEA360645EAC0754FEA07527C
:1003B000001B61EB0201001C41F5801149084FEA66
:1003C00030000019514132462B4603B0BDE8F04FD2
:1003D00000F0ACB90098012240000023D0EB0202EB
:1003E00063EBE073009821464FEAE074B8EB00003D
:1003F00061EB0401E9E783F000435BE781F0004132
:1004000058E72DE9FE4F81EA030404F0004421F08F
:10041000004100944FF0000B23F0004350EA010428
:100420005ED052EA03045BD0C3F30A54C1F30A5509
:100430002C44A4F2F3340194A0FB0254C1F3130141
:1004400041F48011C3F3130343F4801301FB02440E
:1004500000FB034E840A970A44EA815447EA835713
:10046000A4FB076802958D0A05FB07854FEA932CCC
:1004700004FB0C542705029D4FEA065847EA16373D
:10048000B5EB08056EEB070C870E920E47EA811755
:1004900042EA8312A7FB0201B6EB0B0164EB0004F6
:1004A0002B0D43EA0C335E1844EB1C50DA465146E0
:1004B000E7FB0201C5F313044FEA0B3343EA14537D
:1004C0004FEA0432019C43EA0603A4F10C040294AF
:1004D000009CCDE900B400F038F903B0BDE8F08F1E
:1004E00000200146F9E7C10F80EAE0700844CA071E
:1004F0009623002100F0C2B896230022114600F096
:10050000BDB80EB540F2334102910021CDE9001192
:100510000A460B4600F019F903B000BD00F0004296
:1005200020F00040C10DC0F3160040F400007F2908
:1005300001DA00207047962903DCC1F19601C8401A
:1005400001E096398840002AF4D040427047C1F358
:100550000A5210B5C1F3130140F2FF3341F4801188
:100560009A4201DA002010BD40F233439A42A2F2CF
:10057000334203DC524200F056F810BD904010BDEB
:1005800000F0004230F000400AD0C10D01F560716A
:10059000C0F3160042EA0151C208400711437047F8
:1005A00000200146704701F0004330B421F00041C3
:1005B00050EA010206D00A0DA2F56072C1F31301E0
:1005C000002A02DC30BC00207047440F44EAC1041A
:1005D000C100E01830BC00EBC25000F046B800008B
:1005E000002801DBC0F10040002901DBC1F100411E
:1005F00081427047002801DBC0F10040002901DB87
:10060000C1F1004188427047202A04DB203A00FAF9
:1006100002F1002070479140C2F1200320FA03F359
:10062000194390407047202A04DB203A21FA02F057
:100630000021704721FA02F3D040C2F1200291401C
:10064000084319467047202A06DBCB17203A41FAA7
:1006500002F043EAE07306E041FA02F3D040C2F14F
:10066000200291400843194670470029A8BF7047EF
:10067000401C490008BF20F00100704710B4B0FAD8
:1006800080FC00FA0CF050EA010404BF10BC704773
:1006900049B1CCF1200421FA04F411FA0CF118BF8D
:1006A000012121430843A3EB0C01CB1D4FEA00615C
:1006B0004FEA102042BF002010BC704700EBC3502F
:1006C00010440029A4BF10BC7047401C490008BF5B
:1006D00020F0010010BC7047420005D0C0F3C752A3
:1006E0005242914201DC0020704700EBC15070473C
:1006F00010B541000CD0C0F3C751962908DC7E2903
:1007000009DC06DB410204D000F0004040F07E50DE
:1007100010BD002010BDC1F19604C4F1200100FA03
:1007200001F1E040FFF7A1FFA04010BD10B5141E7D
:1007300073F1000408DA401C41F1000192185B419A
:100740001A4301D120F0010010BD2DE9F04D924671
:100750009B4611B1B1FA81F202E0B0FA80F2203288
:100760009046FFF751FF04460F4640EA0A0041EA6F
:100770000B0153465A46084313D0114653EA010071
:1007800019D0C8F140025046FFF74DFF05460E460E
:10079000504659464246FFF737FF084305D001202F
:1007A00004E020463946BDE8F08D0020054346EAC6
:1007B000E0762C4337430A986305E40AA0EB08006F
:1007C0000022FD0A44EA47540A3002D500200146BF
:1007D000E9E7010510196941DDE90845001969419A
:1007E000BDE8F04DA2E72DE9F04D81EA030404F0E5
:1007F000004B21F0004514464FF0000A23F0004161
:1008000050EA050220D054EA01021DD0C5F30A5770
:100810000246C5F31303C1F31300C1F30A5640F4B3
:10082000801543F48013A7EB0608101BD64608F288
:10083000FD3873EB050002D308F1010801E09218BE
:100840005B41B8F1000F03DA00200146BDE8F08DEE
:1008500000204FF48011064684460EE0171B73EB10
:10086000050705D3121B63EB050306434CEA010C95
:1008700049084FEA300092185B4150EA0107EDD178
:1008800052EA030012D082EA040083EA0501084319
:1008900005D0101BAB4106D20122002306E0002246
:1008A0004FF0004302E06FF0010253101AEB060014
:1008B0004CEB085110EB0A0041EB0B01BDE8F04D89
:1008C000FFF734BF70B521F0004303430CD0C1F3F0
:1008D0000A550024D5EB040564EB0403D617AD1AC2
:1008E000B34102DB0020014670BD201841EB0251EC
:1008F00070BD0000064C074D06E0E06840F00103C3
:1009000094E8070098471034AC42F6D3FFF7F2FBA7
:1009100078640008986400082DE9F04D00231A4619
:100920001B1A8A4103DB00200146BDE8F08DC1F3AC
:100930000A52C1F3130141F480154FF0000BD107A7
:1009400002D100186D41521E0027044640F2FF11EB
:10095000384601EB620A3E468046024600204FF4CC
:100960008011FFF760FEC2197141BB1846EB010010
:10097000B4EB030C75EB000C04D3E41A65EB000533
:1009800017460E46241908F101006D4180463428AF
:10099000E3DDF91946EB0600091BA84103D24FF02D
:1009A000FF32134601E0002213461BEB070046EB23
:1009B0000A51BDE8F04DFFF7B9BE70B58C1810F8BC
:1009C000015B15F0070301D110F8013B2A1106D194
:1009D00010F8012B03E010F8016B01F8016B5B1EAE
:1009E000F9D12B0705D40023521E0DD401F8013B89
:1009F000FAE710F8013BCB1A921C03E013F8015BF5
:100A000001F8015B521EF9D5A142D8D3002070BD78
:100A100010B54FF47A7005F0C1F804F0E1FA02F075
:100A2000D7FB05F049FB02F0C9FE02F0C3FF03F05B
:100A3000F1FF04F053F803F059FF10BD2DE9F04F1A
:100A400087B08246022601AC00274FF000084FF025
:100A50000009BAF1100F1ED008DCBAF1080F7CD2E1
:100A6000DFE80AF07BECDBA77BFE94EBBAF1140F16
:100A70001FD009DCBAF1110F13D0BAF1120F16D042
:100A8000BAF1130F69D113E0BAF1150F12D0BAF110
:100A9000EF0FF7D104E1A24FDFF88882DFF88892E8
:100AA00009E0A24FDFF88882DFF8889203E002E0D5
:100AB00000BF00BF00BFEFB138699F49FFF78AFB55
:100AC0008346FFF72BFD00B2ADF8080078699A491C
:100AD000FFF780FB8346FFF721FD00B2ADF80A0067
:100AE000B8699549FFF776FB8346FFF717FD00B21B
:100AF000ADF80C00B8F1000F20D0D8F810008E49E6
:100B0000FFF768FB8346FFF709FD00B2ADF80E0062
:100B1000D8F814008849FFF75DFB8346FFF7FEFC19
:100B200000B2ADF81000D8F818008349FFF752FB67
:100B30008346FFF7F3FC00B2ADF81200B9F1000FE5
:100B400022D0D9F810007C49FFF744FB8346FFF719
:100B5000E5FC00B2ADF8140000E0A8E0D9F81400FC
:100B60007549FFF737FB8346FFF7D8FC00B2ADF8B5
:100B70001600D9F818007049FFF72CFB8346FFF7E1
:100B8000CDFC00B2ADF81800122691E00020ADF8BF
:100B90000800ADF80A00ADF80C00ADF80E00ADF895
:100BA0001000ADF81200ADF81400ADF816001026D4
:100BB0007EE06248808800B2ADF808005F48C088D7
:100BC00000B2ADF80A005D48008800B2ADF80C0034
:100BD0005A48408800B2ADF80E005848008900B26B
:100BE000ADF810005548408900B2ADF812005348E6
:100BF000808900B2ADF814005048C08900B2ADF849
:100C000016004E48808900B2ADF818004B48C089E4
:100C100000B2ADF81A0014264AE049480168029172
:100C200041680391806804900020ADF81400ADF88D
:100C30001600ADF8180012263AE039E0414908687C
:100C40004149FFF7C7FA8346FFF768FC00B2ADF8E9
:100C500008003C4948683C49FFF7BCFA834600E07D
:100C60001DE0FFF75BFC00B2ADF80A00354988686B
:100C70003549FFF7AFFA8346FFF750FC404200B218
:100C8000ADF80C000020ADF80E00ADF810002F48B4
:100C90000078C007C00DADF812000C2608E007E090
:100CA0002B48B0F90000ADF80800022600E000BFB4
:100CB00000BF4AF6AA20ADF8040046EA0A2000B2B6
:100CC000ADF806005421301D215402251AE060576A
:100CD000691C615648406055681C20566157484061
:100CE000691C60546057615648406055615D681CDE
:100CF000205C0144301D205C084441B2301D215469
:100D0000A81CC5B2301D8542E1DB701DC1B2204672
:100D100004F02EFA04F042FA07B0BDE8F08F0000AC
:100D2000AC020020E0020020140300207C0300201D
:100D300048030020B003002000007A449402002001
:100D40007C020020880200200000C842240000200D
:100D5000E00000202DE9F8438548007820B1012803
:100D600006D002286FD122E0012081490870FCE002
:100D70000220FFF763FE052004F010FF0120FFF7BB
:100D80005DFE052004F00AFF0320FFF757FE052053
:100D900004F004FF0620FFF751FE052004F0FEFEDC
:100DA0007448007810B1022071490870DDE0714884
:100DB000007810B901206E4908706E480078C0F3C1
:100DC0008010B8B11020FFF739FE012004F0E6FED4
:100DD0001120FFF733FE012004F0E0FE1220FFF7A0
:100DE0002DFE012004F0DAFE6248007820F0400079
:100DF000604908705F48007800F03F0000287DD00F
:100E00000025002600275B48007800F0010050B163
:100E1000594D5A4E5A4F5B4C5648007820F001000D
:100E20005449087011E053480078C0F3400058B1AD
:100E3000554D564E564F574C4E48007820F0020004
:100E40004C49087001E08FE08FE065B320788DF8A1
:100E5000010060788DF80000BDF80000FFF74CFB42
:100E600080464D49FFF7E8F92861A0788DF8010028
:100E7000E0788DF80000BDF80000FFF73DFB8046EC
:100E80004549FFF7D9F9686120798DF8010060794B
:100E90008DF80000BDF80000FFF72EFB80463E49AC
:100EA000FFF7CAF9A86156B3A0798DF80100E0797F
:100EB0008DF80000BDF80000FFF71EFB80463649A4
:100EC000FFF7BAF93061207A8DF80100607A8DF869
:100ED0000000BDF80000FFF70FFB80462E49FFF72A
:100EE000ABF97061A07A8DF80100E07A8DF800000E
:100EF000BDF80000FFF700FB804601E033E003E0AF
:100F00002549FFF799F9B06167B3207B8DF801009F
:100F1000607B8DF80000BDF80000FFF7EDFA804619
:100F20001D49FFF789F93861A07B8DF80100E07B4E
:100F30008DF80000BDF80000FFF7DEFA8046164984
:100F4000FFF77AF97861207C8DF80100607C8DF8DC
:100F50000000BDF80000FFF7CFFA80460E49FFF70A
:100F60006BF9B86100BF00E000BF00BFBDE8F883C7
:100F7000E3000020E2000020AC020020E00200209C
:100F800014030020840600207C0300204803002076
:100F9000B00300209606002000007A442DE9F041BD
:100FA0007A48007807282ED2DFE800F0042E637715
:100FB0009BC2DE0076480088401C7549088040F2DC
:100FC000A4607449488040F2C750088040F2E55060
:100FD000C8806F48008841F28831884213DD0020C4
:100FE0006D49486008608860694908800120674948
:100FF00008706A48007820F00100401C67490870BA
:10100000002067498870BDE04FF4AF606149888077
:101010005F480088401C5E4908805E484088B0F503
:10102000E16F0DDA5B494888FFF76BFA064600224C
:101030005C4BFFF73FF90446FFF789FA55494880B2
:1010400053480088B0F5FA7F12DD0020504908802F
:1010500002204E4908705148007820F00200801CA0
:101060004E4908700846007820F0100010300870D3
:1010700088E040F246504749888045480088401C37
:101080004349088008460088B0F57A7F04DD0020D7
:10109000088003203D49087074E04FF4E1603D4949
:1010A00048803D498868FFF76BFA06463E4A3F4B49
:1010B000FFF7A1F90446FFF776FA3749886034480C
:1010C0000088401C324908800846008841F294118B
:1010D000884205DD00202E49088004202B49087035
:1010E00050E040F2FB502B4948804FF49660088056
:1010F00029498868FFF744FA06462B4A2B4BFFF72D
:101100007AF90446FFF74FFA23498860204800889F
:10111000401C1F4908800846008841F2941188420B
:1011200005DD00201A49088005201849087029E0CB
:1011300040F24C401749888015480088401C1449EB
:1011400008800846008864280DDD06200F490870D5
:101150001248007820F00200104908700846007814
:1011600020F0100008700DE04FF47A700949888073
:101170000A48007820F00100084908700220084958
:10118000887000BF00BFBDE8F0810000260100208C
:101190002801002094020020880200202400002062
:1011A000440000200000F83FFCA9F1D24D62803FCE
:1011B00000BFFEE70146CAB20B1243EA02207047A5
:1011C00010B5002473E147F6FF70BF490860BF48BF
:1011D000008800F00F00BE4908700846007800281B
:1011E0007ED1B9484438006800F44050B9490880BD
:1011F000B5484438006800F03000B7490880B2496B
:10120000443909684BF68F7201EA020080F40050FD
:10121000AD4944390860096848F6BF7201EA020026
:1012200080F02000A84944390860A848008800F0F0
:101230001000002838D10846006848F60F710840B1
:10124000A1494439086002F073F89F49443909689C
:101250004BF68F7201EA02009E49098801F4805121
:1012600009B180F480509B49098801F4005109B10B
:1012700080F40050944944390860096848F6BF7208
:1012800001EA02009449097801F0100109B180F0E7
:1012900010009149097801F0200109B180F0200087
:1012A00089494439086010BD87484438006884B2D1
:1012B00004F08000D8B384484438006848F60F71C1
:1012C000084081494439086002F032F87E494439C7
:1012D00009684BF68F7201EA02007E49098800E036
:1012E000A6E001F4805109B180F480507949098861
:1012F00001F4005109B180F4005073494439086089
:10130000096848F6BF7201EA02007349097801F0E2
:10131000100109B180F010006F49097801F0200137
:1013200009B180F02000684944390860BBE7FFE755
:1013300004F40060D8B3644844380068C0F30E0079
:1013400048F68F71084060494439086002F0F8FFA0
:101350005D49443909684BF68F7201EA02005D4924
:10136000098801F4805109B180F4805059490988F5
:1013700001F4005109B180F4005053494439086028
:10138000096848F6BF7201EA02005349097801F082
:10139000100109B180F010004F49097801F02001D7
:1013A00009B180F020004849443908607BE7FFE735
:1013B00004F4004000287AD0434844380068C0F361
:1013C0000E0048F68F7108403F494439086002F02A
:1013D000E1FB3D49443909684BF68F7201EA02008E
:1013E0003C49098801F4805109B180F480503949A1
:1013F000098801F4005109B180F4005032494439A0
:101400000860096848F6BF7201EA020032490978AB
:1014100001F0100109B180F010002F49097801F0A6
:10142000200109B180F020002749443908603AE7DB
:1014300027480078294901EB8000D0F8000C84B2DD
:1014400004F40040C0B12248007801EB8000D0F8DD
:10145000000CC0F30E0048F68F7108401C49097853
:101460001E4A02EB8101C1F8000C19490978491E96
:101470001B4A52F82100804704F08000B8B114489C
:101480000078164901EB8000D0F8000C48F60F7187
:1014900008400F490978114A02EB8101C1F8000C9C
:1014A0000B490978491E0F4A52F821008047064827
:1014B000006880B20549088000F4004000287FF4ED
:1014C00082AE00BFEFE60000445C004098010020BF
:1014D00064010020780100207A01002000500040C3
:1014E000B80100209C0100200B4A02EB8001D1F8DA
:1014F000001C01F4804169B102EB8001D1F8001CAD
:1015000048F68F72114041F48041034B03EB800297
:10151000C2F8001C70470000005000400B4A02EB6C
:101520008001D1F8001C01F0400169B102EB80019B
:10153000D1F8001C48F68F72114041F04001034B76
:1015400003EB8002C2F8001C70470000005000400E
:10155000064A02EB8001D1F8001C48F68F62114068
:10156000024B03EB8002C2F8001C704700500040A1
:1015700070B504460025062C18D11848006800787C
:1015800000F07F00012811D114480068407968B943
:10159000124800688078222801D1114D10E00F48D0
:1015A0000068807821280BD10E4D09E00B480068B7
:1015B000007800F07F00212802D1032C00D10A4DD1
:1015C0000DB9022070BD05480068856100210348FF
:1015D000006841820020A8470020F3E7680100204E
:1015E00045160008151600082916000810B504460F
:1015F0000249204602F0C0FF10BD00003802002062
:1016000010B504460249204602F0B6FF10BD0000A6
:101610003002002010B504460249204602F0ACFF1B
:1016200010BD000048020020014629B90120034AEC
:1016300012681082002070470148FCE76801002012
:10164000D401002010B504460249204602F094FF60
:1016500010BD00004002002070B505460648006835
:10166000C478042C01DD002070BD044800EBC401E7
:10167000284602F081FFF7E76801002050020020B1
:101680000246002901DD02207047002A01DD022008
:10169000FAE70020F8E7000000B5024606480068B7
:1016A000007800F07F00212804D10B2A02D100F03D
:1016B00077F800BD0220FCE76801002010B500208B
:1016C0002A490968887229490968C8722848C07976
:1016D000264909684872002002F0BAFC4FF40071F4
:1016E000002002F09DFD1021002002F067FD18216E
:1016F000002002F0DBFC5821002002F041FD002018
:10170000FFF726FF1B4890F82C10002002F0E0FCA9
:10171000002002F01FFD4FF4C061012002F080FDA7
:101720009821012002F0C2FC4021012002F0D0FCEF
:101730004FF44051012002F0F1FC4FF4C06102204F
:1017400002F06EFD4FF48C71022002F019FD402171
:10175000022002F025FD2021022002F02FFD0120B1
:1017600005490860002002F07BFC10BD68010020E4
:1017700092630008DC01002070020020034800682A
:10178000807A10B105200249086070476801002086
:101790007002002004200149086070477002002098
:1017A00003480068C17803480160002070470000CA
:1017B00068010020D40100207047704710B501F087
:1017C000F9F800200A490968887202F0D3FA00206B
:1017D000084908604FF43F400749088008460088E0
:1017E0000449091F086000200449086010BD00007A
:1017F00068010020445C004072010020700200205B
:101800002DE9F0472848006800F110052E88264889
:101810000068077AD6B9042F18D124480078012827
:101820000FD100212248006880B2801C214A42F872
:10183000101030202049088000BF00201B4908708C
:1018400003E0072710201C49088027E0AC88A64247
:1018500001D8042000E002200746B44200D93446F3
:10186000A0B2A96888478046002001F081F881462F
:10187000A2B24946404603F079FDA1B2002002F031
:101880008FFC2888001B28806888204468803020CE
:101890000949088000020949088000BF0249096817
:1018A0000F72BDE8F087000068010020620100208F
:1018B000505C0040006000407A0100207801002068
:1018C0002DE9F0412848006800F110042688A0683E
:1018D000C0B1BEB1A588B54200D93546A8B2A1684D
:1018E000884707462088401B208060882844608005
:1018F000002001F02DF88046AAB24146384602F099
:1019000071F900BF208850B14FF44050174908804A
:101910000021084602F044FC302015490880208848
:10192000A188884204DB03200F490968087218E087
:101930002088002804DD05200B490968087210E0A2
:10194000208870B9062008490968087200210948F2
:10195000006880B2801C084A42F810103020044908
:101960000880BDE8F08100006801002078010020B7
:101970007A010020505C0040006000402DE9F84FE3
:101980009B48006845780027BA46062D1BD1984829
:101990000068007800F07F00002813D1944909689E
:1019A0008878012803D193490968CF690AE00228A1
:1019B00003D1904909680F6A04E0032802D18D49D8
:1019C00009684F6A94E0002D64D189480068408816
:1019D00000285FD186480068C08802285AD1844810
:1019E00000680079002855D181480068007800F02F
:1019F0007F0028B97E480068808808B97E4F77E06C
:101A00007B480068007800F07F00012810D17849F9
:101A100009684879774909688A6900219047002850
:101A200066D173480068807A002861D0724F5FE009
:101A30006F480068007800F07F00022858D16C4899
:101A40000068407900F00F0669480068407900F0AE
:101A5000700967480068407900F0800038B1674934
:101A600001EB8600D0F8000C00F0300806E0634976
:101A700001EB8600D0F8000C00F440586048007874
:101A8000B04235D9B9F1000F32D1B8F1000F2FD0E3
:101A9000594F2DE0082D07D155480068007800F017
:101AA0007F0028BB574F23E00A2D21D15048006802
:101AB000007800F07F0001281AD14D480068807A34
:101AC000B0B14B480068408890B949480068007937
:101AD00070B947480068C088012809D1444909689D
:101AE0004879444909688A690021904700B9464FFE
:101AF00057B13F480068A0F812A03D4800688761D0
:101B00000020B84700240FE0394A12685078394A5B
:101B10001268116988470446032C05D1092034490D
:101B200009680872BDE8F88F31480068008A4FF6EE
:101B3000FF71884204D109202D4909680872F1E734
:101B4000022C03D02A480068008A20B908202849BE
:101B500009680872E6E726480068007800F080000F
:101B6000E0B323480068C088009021480068008ADC
:101B70000099884204D91E4900980968088223E028
:101B80001B480068008A1A490968C98888421BDA1C
:101B900017480068008A1749096891F82C10884294
:101BA00003DA0020194908700EE011480068008A25
:101BB0001049096891F82C1090FBF1F201FB12001A
:101BC00010B90120114908700A48006890F82C10DB
:101BD000074800688182FFF713FE07E0FFE7032054
:101BE00003490968087200030949088000BF99E7A2
:101BF000680100206C010020C94500080050004029
:101C0000D80100204D4500089D45000862010020D4
:101C1000780100207047000010B540229821054847
:101C200001F0E0FF0120044908704FF4405102F038
:101C300075FA10BD1C0500202E000020002004E0D5
:101C40000021034A1154411CC8B24028F8DB7047F8
:101C5000E40600200320014908607047700200205C
:101C6000094A0A4B1A6009E0084A12681288028081
:101C7000801C064A1268921C044B1A600A1EA1F1CD
:101C80000103D9B2F0D17047007C00083800002071
:101C900070B504465A480078012806D00B280DD0AC
:101CA0001F2819D0FF287CD193E05648007800F017
:101CB000010010B10B205249087096E006215248ED
:101CC00004F0A8F900205149486208605049886032
:101CD0001F204B49087088E04D4948684D49FEF780
:101CE0007FFC11D34A4948684B49FEF783FC0BD36C
:101CF000474908684749FEF773FC05D3444908681B
:101D00004549FEF777FC0AD244488088B0F5966FC3
:101D100005DD3C48007820F001003A490870404950
:101D2000B1F90600FEF7DFFB05463E48016828468C
:101D3000FEF750FA3C4948623949B1F90800FEF70C
:101D4000D2FB0546374801682846FEF743FA374973
:101D500048623349B1F90A00FEF7C5FB0546314830
:101D600001682846FEF736FA31494862284840683B
:101D700030494862264800682F49486224488068F4
:101D80002249486221462C4804F05DF92A48806ABD
:101D9000254908602146244804F055F92146254884
:101DA00000E01EE004F04FF92248806A1F490860F5
:101DB00021461E4804F047F92146144804F043F92F
:101DC0001248806A1A4908602146194804F03BF914
:101DD0000BE006210C4804F01DF9012008490870A9
:101DE00003E0FF200649087000BF00BF05480078E7
:101DF00000F0010010B9FF200149087070BD00001B
:101E00003201002024000020E4000020B003002064
:101E100088020020000048C20000484294020020CE
:101E20007C02002074630008AC020020E002002065
:101E300014030020480300207C03002010B5044652
:101E40008B48007800F0010010B9FF208949087024
:101E500088480078012806D002280DD01F281FD0FE
:101E6000FF287CD1F6E08248007800F0010010B134
:101E7000022080490870F9E07D480078C0F3001026
:101E800068B17D480068C82809D904217B4804F05E
:101E9000C1F81F2077490870012079490870E5E0F2
:101EA0007848008840F2D661884211DC7548008885
:101EB00040F2E24188420BDB7248408840F2D66132
:101EC000884205DC6F48408840F2E241884231DABE
:101ED00001206B4908706B49098840F2D662914233
:101EE00002DD6FF00E0108E06649098840F2E24227
:101EF000914201DA0F2100E000210846FEF7F3FAD3
:101F0000614908605F49498840F2D662914201DD2B
:101F10000F2109E05B49498840F2E242914202DA2E
:101F20006FF00E0100E000210846FEF7DCFA574989
:101F3000086047E05248007850B1002050490870CE
:101F40005348006853490860534800685349086083
:101F50004F4800684F49486221464E4800E081E002
:101F600004F071F84C4800684C49486221464B48DF
:101F700004F069F84749886A4949FEF731FB01D204
:101F8000474809E04349886A4649FEF733FB01D2D6
:101F9000444801E03F48806A3B4908603F49886AFD
:101FA0003F49FEF71DFB01D23D4809E03B49886AE5
:101FB0003C49FEF71FFB01D23A4801E03748806AEE
:101FC00032490860384800682F49486221462E4847
:101FD00004F039F8354800682C49486221462B48FE
:101FE00004F031F82849886A3149FEF7F9FA01D23C
:101FF0002F4809E02449886A2E49FEF7FBFA01D2EE
:102000002C4801E02048806A2B4908601F49886AF3
:102010002749FEF7E5FA01D2254809E01B49886AFD
:102020002449FEF7E7FA01D2224801E01748806A06
:1020300080F00040214908600D480078C0F300108E
:1020400020B10B480078C0F3400010B9FF200949C7
:1020500008700BE00421094803F0DCFF012005496A
:10206000087003E001200349087000BF00BF10BDE5
:10207000240000202C010020200100200401002069
:102080002D01002094020020B4040020E804002068
:10209000B80000204C040020BC0000208004002078
:1020A0000000A0C10000A041A8000020AC0000205A
:1020B000000070C1000070417C0300204803002034
:1020C0002DE9F041024600250026002000230024CF
:1020D000002791F803C00CF00F0591F803C00CF035
:1020E000100CBCF1000F03D091F802C04CEA0505BA
:1020F00091F800C0BCF1000F31D0146800202BE033
:102100004FF0010C0CFA00F3B1F800C00CEA030622
:102110009E4220D183004FF00F0C0CFA03F7BC4312
:1021200005FA03FC4CEA040491F803C0BCF1280F43
:1021300006D14FF0010C0CFA00FCC2F814C00AE002
:1021400091F803C0BCF1480F05D14FF0010C0CFA17
:1021500000FCC2F810C0401C0828D1D31460B1F8AC
:1021600000C0BCF1FF0F34DD546800202EE000F108
:10217000080C4FF0010808FA0CF3B1F800C00CEAA3
:1021800003069E4221D183004FF00F0C0CFA03F797
:10219000BC4305FA03FC4CEA040491F803C0BCF10B
:1021A000280F05D100F1080C08FA0CF8C2F81480C9
:1021B00091F803C0BCF1480F07D100F1080C4FF0B3
:1021C000010808FA0CF8C2F81080401C0828CED389
:1021D0005460BDE8F08141617047016170470000C3
:1021E00007B5A0B04FF07C501390FE4812904FF00E
:1021F0007C512298FDF7EEFF0C90FB488068089018
:10220000F948006807900899FDF7E4FF0A90F6483E
:10221000C0680890F448406807900899FDF7DAFF15
:1022200009900A99FDF7D0FF4FF080410B90FDF720
:10223000D1FF1D90EC48C0680890EB48806807907B
:102240000899FDF7C7FF0A90E74840680890E648FC
:10225000006807900899FDF7BDFF09900A99FDF7FE
:1022600061FF4FF080410B90FDF7B4FF1E90DE48F8
:1022700080680790DC48806806900799FDF7AAFF00
:102280000990D94840680790D74840680690079958
:10229000FDF7A0FF08900999FDF744FF4FF080413A
:1022A0000A90FDF797FF4FF07E510B90FDF78FFFDF
:1022B0001F90CE48B0F904000690FEF714F908907C
:1022C000CA48B0F904000690FEF70DF90790089986
:1022D000FDF780FF0A90C548B0F902000490FEF7B0
:1022E00002F90690C148B0F902000490FEF7FBF82D
:1022F00005900699FDF76EFF0890BC48B0F9000004
:102300000490FEF7F0F80690B848B0F90000049089
:10231000FEF7E9F805900699FDF75CFF079008992C
:10232000FDF700FF09900A99FDF7FCFE0B9001F004
:1023300041FD0D902098B0F900000A90FEF7D3F807
:102340000B900D99FDF746FF1A902098B0F9020006
:102350000A90FEF7C8F80B900D99FDF73BFF1B9014
:102360002098B0F904000A90FEF7BDF80B900D9983
:10237000FDF730FF1C901E9809901C980890099951
:10238000FDF728FF0B901F9809901B98089009995A
:10239000FDF720FF0A900B99FDF716FF14901F9888
:1023A00009901A9808900999FDF714FF0B901D9851
:1023B00009901C9808900999FDF70CFF0A900B9959
:1023C000FDF702FF15901D9809901B980890099938
:1023D000FDF700FF0B901E9809901A980890099934
:1023E000FDF7F8FE0A900B99FDF7EEFE1690149893
:1023F0007C490A90FDF7EEFE0B907D48006801468F
:102400000A900B98FDF78EFE79490860159875497A
:102410000A90FDF7DFFE0B907548406801460A9070
:102420000B98FDF77FFE7249486016986D490A9037
:10243000FDF7D0FE0B906E48806801460A900B981D
:10244000FDF770FE6A4988601498014608904FF0C5
:102450007C50FDF7BFFE0A902098B0F90600079067
:10246000FEF741F80890634801680898FDF7B2FE4E
:1024700009900A99FDF756FE0B905D4800680146E9
:102480000A900B98FDF74EFE17901598014608909C
:102490004FF07C50FDF79EFE0A902098B0F908009E
:1024A0000790FEF720F80890524801680898FDF759
:1024B00091FE09900A99FDF735FE0B904C48406853
:1024C00001460A900B98FDF72DFE189016980146CC
:1024D00008904FF07C50FDF77DFE0A902098B0F9EF
:1024E0000A000790FDF7FFFF08904248016808982E
:1024F000FDF770FE09900A99FDF714FE0B903C4819
:10250000806801460A900B98FDF70CFE1990199807
:1025100008903548C06807900899FDF75BFE0A905F
:10252000189806903048806805900699FDF752FE8D
:1025300008902D48406880F00040069017980146AA
:1025400005900698FDF746FE07900899FDF73CFEBA
:1025500009900A99FDF738FE0B900C99FDF73AFEA9
:102560001190199808902048806807900899FDF705
:1025700031FE0A90189806901B48C068059006998D
:10258000FDF728FE089017980690174800680590F8
:102590000699FDF71FFE07900899FDF715FE0990B3
:1025A0000A99FDF7BFFD0B900C99FDF713FE1090F3
:1025B000199808900C48406807900899FDF70AFEA2
:1025C0000A90189806900848006805900699FDF74B
:1025D00001FE0890179806900348C0680590069978
:1025E0000AE0000052499D39380100207C02002099
:1025F000BC06002078630008FDF7ECFD0790089901
:10260000FDF790FD09900A99FDF7DEFD0B900C99FE
:10261000FDF7E0FD0F9019980890C74800680790F3
:102620000899FDF7D7FD0A9018980690C2484068AF
:1026300005900699FDF7CEFD0890BF48806880F0B0
:10264000004006901798014605900698FDF7C2FDD8
:1026500007900899FDF766FD09900A99FDF762FD5C
:102660000B900C99FDF7B6FD0E90B34800680B90E7
:102670001199FDF757FDB0490860084640680B9076
:102680001099FDF74FFDAC494860084680680B90F3
:102690000F99FDF747FDA84988600846C0680B9070
:1026A0000E99FDF73FFDA449C8600846C068089030
:1026B0000846C06807900899FDF78CFD0A909E486F
:1026C000806806909C48806805900699FDF782FD19
:1026D000089099484068049097484068039004998E
:1026E000FDF778FD069094480068049092480068D1
:1026F00003900499FDF76EFD05900699FDF712FD14
:1027000007900899FDF70EFD09900A99FDF70AFD5B
:102710000B9001F04FFB0D90874800680B900D99CE
:10272000FDF758FD84490860084640680B900D99F4
:10273000FDF750FD80494860084680680B900D9970
:10274000FDF748FD7C4988600846C0680B900D99EC
:10275000FDF740FD7849C8600846006801460490CE
:102760004FF08040FDF736FD0590734880680146C4
:1027700004900598FDF72EFD07906F4840680146CC
:1027800004904FF08040FDF725FD05906A48C06831
:10279000014604900598FDF71DFD06900799FDF789
:1027A00013FD0B9064480068014604904FF0804090
:1027B000FDF710FD059060484068014604900598BB
:1027C000FDF708FD07905C488068014604904FF0D3
:1027D0008040FDF7FFFC05905748C0680146049013
:1027E0000598FDF7F7FC06900799FDF79BFC0A900A
:1027F00051488068014604904FF08040FDF7EAFCA4
:1028000005904D488068014604900598FDF7E2FC6C
:10281000079049484068014603904FF08040FDF71B
:10282000D9FC049044484068014603900498FDF7A1
:10283000D1FC4FF07E510590FDF7C9FC0690079939
:10284000FDF7C2FC09902098B0F90A000690FDF748
:102850004AFE0790394801680798FDF7BBFC0890CD
:1028600037490898FDF7C6FE04D336490898FDF7A6
:10287000B7FE0DD222990898FDF7ACFC079021987D
:102880008068014606900798FDF74CFC2199886006
:102890002D480068FDF774FECDE904010B98FDF7A3
:1028A0006FFECDE9000102F0E3FE81F00041CDE9C9
:1028B0000201DDE90423FDF7A4FDCDE90601FDF7E2
:1028C00072FE21994860DDE9091003F009F80790CC
:1028D0001D4801680798FDF77DFC21990860209844
:1028E000B0F904000490FDF7FEFD05900999FDF78D
:1028F00071FC07902098B0F902000290FDF7F3FDFB
:1029000003900A99FDF766FC05902098B0F9000045
:102910000290FDF7E8FD03900B99FDF75BFC049036
:102920000599FDF7FFFB06900799FDF7FBFB0749AB
:10293000086023B000BD0000380100207463000867
:10294000CDCC4C3FCDCC4CBF6C6300083401002093
:1029500001460548006880B200EBC100001D034A33
:1029600032F8100080B27047505C004000600040B8
:1029700001460548006880B200EBC100034A32F806
:10298000100080B270470000505C004000600040C2
:1029900010B506480168064803F0D4FA0448806878
:1029A000024908600846006810BD0000340100209C
:1029B0004801002010B50F4B18681B1D19681B1D1E
:1029C0001A68A8B10C4CA070030A2371030CA37100
:1029D000030E2372A1720B0A23730B0CA3730B0E4D
:1029E0002374A274130A2375130CA375130E237694
:1029F00010BD0000E8F7FF1F7C01002000BFFEE7CC
:102A00002DE9F05F0446FFF7C3FF0746FDF786FD9B
:102A100005B29B480088281A06B29A48007800F050
:102A2000010008B9964805809748006840F6AC5107
:102A3000884260D294480068FDF75EFD8046934866
:102A400001684046FDF7C0FB07469149FDF7D2FDFE
:102A500007D28F498D480068FDF764FB8B490860F9
:102A60001CE089480068FDF747FD804687480168FB
:102A70004046FDF7A9FB07468649FDF7B1FD07D2A1
:102A8000834982480068FDF79FFB8049086005E0A4
:102A90007D480068FDF730FD7C4908607B4801688F
:102AA0000068FDF791FB82467B49FDF793FB814669
:102AB0002146FDF7C1FB07463046FDF714FD83466E
:102AC0002146FDF787FB8246744801685046FDF7B2
:102AD00029FB81467249FDF77DFB80463946FDF7AB
:102AE00021FB6E490860084600686E4948626748E5
:102AF00000686D4948626348007800F0010010B931
:102B0000FF206A49087069480078012806D0022829
:102B100019D01F282AD0FF287ED1A1E0594800787B
:102B200000F0010070B100205C4908605D49486216
:102B3000564800685C49486202205C4908700020E1
:102B40005B49087098E04F480078C0F3400060B1DE
:102B50000020584908700420574988704FF4FA70D3
:102B6000564908801F205149087085E054488088E4
:102B700040F2D661884218DA5148808840F27E419E
:102B8000884212DD4B48007830B90120494908706D
:102B90004548406A444908602146434803F053FAD7
:102BA0004148806A3F49086029E04548808840F2F2
:102BB000D66188420BDD34480068490088421ED245
:102BC00000203C4908703F483649086017E03C48FF
:102BD000808840F27E41884211DA00203549087031
:102BE0003948304908603049486A3849FDF7F8FCEF
:102BF00005D22448007820F00100224908702146BF
:102C0000284803F020FA1F480078C0F3400058B16C
:102C10001D480068322800E02AE005D31A48006801
:102C200040F67461884217D921480078401C204939
:102C3000087008460078322811DD1248007820F02C
:102C40000200104908700846007820F01000087053
:102C5000FF201649087002E00020154908700BE0BB
:102C600002211B4803F0D6F901201049087003E047
:102C700001200E49087000BF00BFBDE8F09F0000B2
:102C80003001002024000020200100201401002039
:102C900000004842000048C28FC2753C1801002065
:102CA000F6287C3FE4030020180400202E010020B9
:102CB0002401002025010020440000201C010020E8
:102CC0009402002000007A430000AFC300002041BE
:102CD000FC00002008B54020304908600220009028
:102CE00004E09DF80000401EC0B200909DF8000076
:102CF0000028F6D18020294908600220009004E0D5
:102D00009DF80000401EC0B200909DF80000002811
:102D1000F6D140202149091F08600220009004E0FC
:102D20009DF80000401EC0B200909DF800000028F1
:102D3000F6D10220009004E09DF80000401EC0B2D1
:102D400000909DF800000028F6D10220009004E0D9
:102D50009DF80000401EC0B200909DF800000028C1
:102D6000F6D10220009004E09DF80000401EC0B2A1
:102D700000909DF800000028F6D140200749086027
:102D80000220009004E09DF80000401EC0B20090B8
:102D90009DF800000028F6D108BD0000140C014089
:102DA00008B54020304908600220009004E09DF8FA
:102DB0000000401EC0B200909DF800000028F6D12F
:102DC00080202949091F08600220009004E09DF836
:102DD0000000401EC0B200909DF800000028F6D10F
:102DE00040202149091F08600220009004E09DF85E
:102DF0000000401EC0B200909DF800000028F6D1EF
:102E00000220009004E09DF80000401EC0B2009037
:102E10009DF800000028F6D10220009004E09DF803
:102E20000000401EC0B200909DF800000028F6D1BE
:102E30000220009004E09DF80000401EC0B2009007
:102E40009DF800000028F6D14020074908600220C4
:102E5000009004E09DF80000401EC0B200909DF874
:102E600000000028F6D108BD140C014008B5082167
:102E7000002080222C4B1A604CE04206100E4022AB
:102E8000294B1B1D1A600222009204E09DF80020CD
:102E9000521ED2B200929DF80020002AF6D10222E2
:102EA000009204E09DF80020521ED2B200929DF8DC
:102EB0000020002AF6D140221B4B1A600222009209
:102EC00004E09DF80020521ED2B200929DF800202E
:102ED000002AF6D10222009204E09DF80020521E42
:102EE000D2B200929DF80020002AF6D10222009270
:102EF00004E09DF80020521ED2B200929DF80020FE
:102F0000002AF6D1084A083A126802F080020AB193
:102F100040F001000A1EA1F10103D9B2ADD1402257
:102F2000014B1B1D1A6008BD100C014008B508219B
:102F300050E040222C4B1A600222009204E09DF8DF
:102F40000020521ED2B200929DF80020002AF6D135
:102F500000F0800222B18022234B1B1F1A6002E086
:102F60008022214B1A604206100E0222009204E0D9
:102F70009DF80020521ED2B200929DF80020002A37
:102F8000F6D14022184B1B1F1A600222009204E067
:102F90009DF80020521ED2B200929DF80020002A17
:102FA000F6D10222009204E09DF80020521ED2B217
:102FB00000929DF80020002AF6D10222009204E03F
:102FC0009DF80020521ED2B200929DF80020002AE7
:102FD000F6D100BF0A1EA1F10103D9B2A9D1402246
:102FE000014B1A6008BD0000140C014008B5802098
:102FF00022490860402008600220009004E09DF80B
:103000000000401EC0B200909DF800000028F6D1DC
:103010001A480838006808B9012000E0002000F0D4
:10302000800008B1012008BD80201449091D0860F6
:103030000220009004E09DF80000401EC0B2009005
:103040009DF800000028F6D10C480838006800F010
:10305000800008B10120E6E740200849091D08600A
:103060000220009004E09DF80000401EC0B20090D5
:103070009DF800000028F6D100BFD4E7100C0140F5
:1030800008B54020244908600220009004E09DF823
:103090000000401EC0B200909DF800000028F6D14C
:1030A00080201D4908600220009004E09DF8000087
:1030B000401EC0B200909DF800000028F6D102200A
:1030C000009004E09DF80000401EC0B200909DF802
:1030D00000000028F6D140200F49091F0860022097
:1030E000009004E09DF80000401EC0B200909DF8E2
:1030F00000000028F6D180200749091F086002203F
:10310000009004E09DF80000401EC0B200909DF8C1
:1031100000000028F6D108BD140C014008B540207D
:103120002A4908600220009004E09DF80000401E3B
:10313000C0B200909DF800000028F6D180202349FD
:10314000091F08600220009004E09DF80000401E66
:10315000C0B200909DF800000028F6D140201B4925
:10316000091F08600220009004E09DF80000401E46
:10317000C0B200909DF800000028F6D10220009017
:1031800004E09DF80000401EC0B200909DF80000D1
:103190000028F6D10220009004E09DF80000401EB7
:1031A000C0B200909DF800000028F6D107480C3806
:1031B000006800F0800020B1402004490860012030
:1031C00008BD4020014908600020F9E7140C0140C7
:1031D00008B50121082000F025FEC020ADF8000050
:1031E00003208DF8020014208DF803006946024880
:1031F000FEF766FF08BD0000000C014070B50446F4
:103200000D460026FFF7F2FE012800D170BD2046D2
:10321000FFF78CFEFFF782FF012803D1FFF730FF95
:103220000120F3E72846FFF781FEFFF777FFFFF75E
:1032300027FFFFF7DBFE611CC8B2FFF777FEFFF741
:103240006DFF012803D1FFF71BFF0120DEE7FFF729
:103250000DFE0646FFF7A4FDFFF712FF70B2D5E79B
:1032600070B506460C461546FFF7C0FE012800D192
:1032700070BD3046FFF75AFEFFF750FF012803D11B
:10328000FFF7FEFE0120F3E72046FFF74FFEFFF7B2
:1032900045FF2846FFF74AFEFFF740FFFFF7F0FE25
:1032A0000020E5E72DE9F04107460E4615461C468D
:1032B000FFF79CFE012801D1BDE8F0813846FFF7F9
:1032C00035FEFFF72BFF012803D1FFF7D9FE0120C0
:1032D000F2E73046FFF72AFEFFF720FF012803D16F
:1032E000FFF7CEFE0120E7E7FFF7CAFEFFF77EFEFD
:1032F000791CC8B2FFF71AFEFFF710FF012803D1AF
:10330000FFF7BEFE0120D7E70CE0FFF7AFFD287006
:10331000012C02D1FFF744FD01E0FFF7DBFC6D1C3F
:10332000601EC4B2002CF0D1FFF7AAFE0020C3E754
:1033300010B518480068047A022C01D0042C05D17D
:10334000FEF75EFA13480068047A1CE0062C19D1D7
:1033500010480068407805280ED10E4800680078B3
:1033600000F07F0040B90B490968C87800F078FE8A
:1033700009490968086A80470849096888688047D8
:10338000082400E00824034909680C7200F0CEFC10
:1033900010BD000068010020740100206C010020B5
:1033A0000548817A19B10521044A116002E0012122
:1033B000024A116070470000C80600207002002019
:1033C00000BFFEE72DE9F047B148007800F00100AA
:1033D00010B9FF20AF490870AE480078012806D028
:1033E000022813D01F281BD0FF287DD1EAE000203F
:1033F000A949C880888048800880A548007800F0E6
:10340000010010B10220A3490870E6E0A3488088BB
:1034100040F24C41884202DD1F209E490870DCE0EA
:103420009B480078C0F3400070B19D480088FDF7CC
:1034300063F806469B48816A3046FCF773FE0546F2
:10344000FDF76CF804B234E094488088A0F57A70F7
:1034500005B22846FDF747F880469349FCF7BAFEC7
:1034600007469249FCF75EFE0646FDF757F804B2A0
:103470008B490C800A2D18DA8D480088401C8C4935
:10348000088008460088B0F5967F11DD00240621EB
:10349000884802F0BFFD00207F49C88088804880AE
:1034A000088002207B49087097E00020804908804E
:1034B00000BF002C01DA002006E0B4F5487F02DDF1
:1034C0004FF4487000E020467349C88088804880E7
:1034D0000880794A916A794A906AFCF723FE80460F
:1034E0007748816A404600E076E0FCF71BFE06461E
:1034F0006949B1F90000FCF7F6FF07463146FCF7D1
:1035000011FE0546FDF70AF800B2634908806A4AD1
:10351000916A6A4A906AFCF757FE80466848816A59
:103520004046FCF751FE06465B49B1F90200FCF744
:10353000DAFF07463146FCF7F5FD0546FCF7EEFFDE
:1035400000B2554948805D48806A80F000485A487A
:10355000816A4046FCF7E6FD07465948816A3846CD
:10356000FCF732FE06464C49B1F90400FCF7BBFFFC
:1035700081463146FCF7D6FD0546FCF7CFFF00B289
:10358000454988804D48806A80F000484A48816AF1
:103590004046FCF719FE07464948816A3846FCF761
:1035A000C1FD06463C49B1F90600FCF79CFF814687
:1035B0003146FCF7B7FD0546FCF7B0FF00B23649CF
:1035C000C8800AE000203449C8808880488008808C
:1035D00001203049087000E000BF00BF2E48B0F95C
:1035E0000000002801DA00200BE02B48B0F90000B1
:1035F000B0F57A7F02DD4FF47A7002E02648B0F928
:1036000000004FF0804188862348B0F9020000286E
:1036100001DA00200BE02048B0F90200B0F57A7F13
:1036200002DD4FF47A7002E01B48B0F902004FF05F
:10363000804108871848B0F90400002801DA00200A
:103640000BE01548B0F90400B0F57A7F02DD4FF4C5
:103650007A7002E01048B0F904004FF0804188878A
:103660000D48B0F90600002801DA00200BE00A48F6
:10367000B0F90600B0F57A7F02DD4FF47A7002E00F
:103680000548B0F906000F490880BDE8F087000042
:103690002400002033010020260000209402002096
:1036A0001C010020E40300206666E63E000048435B
:1036B0002A010020E4000020E0020020AC020020EB
:1036C00014030020400000402DE9FE4F06236A4607
:1036D0003B21D020FFF7E6FD06230DF10602432132
:1036E000D020FFF7DFFD002458E0012000EB44006C
:1036F0001DF800001DF8141040EA0120294931F896
:103700001410401A00B22849096821F81400032C4B
:103710001BDA2549096831F91400FCF7E4FE054677
:1037200004EB4401214A02EBC100294602F00AFCE5
:1037300004EB44011D4A02EBC1018868FCF7EEFE70
:1037400000B21949096821F81400022C24DDE01E9A
:10375000C5B2DFF85C801449096831F91400FCF740
:10376000C2FE82464146FCF735FD0746114951F835
:1037700025001149FCF72EFD81463946FCF7D2FCA5
:103780000C4941F825000646FCF7C8FE00B2064980
:10379000096821F8140000BF601CC4B2062CA4DB29
:1037A000BDE8FE8F5C0600204C0000205000002089
:1037B0009A99193E680600209A99593F10B500243D
:1037C00000BF80226B21D020FFF74AFDC4B21E202B
:1037D00002F0E4F902221921D020FFF741FD204434
:1037E000C4B203226B21D020FFF73AFD2044C4B2BB
:1037F00003221A21D020FFF733FD2044C4B218223F
:103800001B21D020FFF72CFD2044C4B209221C212B
:10381000D020FFF725FD2044C4B2002CD1D1752162
:10382000D020FFF7EBFCC4B2682C01D0012010BD02
:1038300006210248FEF714FA0020F8E75C06002093
:10384000704770471FB510A103C9CDE902010522D9
:1038500002A9302000F074F805226946102000F01B
:103860004DF8002406E01DF80400A52800D003E070
:10387000601CC4B2052CF6DB00BF052C02D0012071
:1038800004B010BD0020FBE7A5A5A5A5A50000007C
:1038900008B50121082000F0C5FA4FF48850ADF8B2
:1038A000000010208DF8030003208DF80200694607
:1038B0001048FEF705FC4FF480700E491031086087
:1038C00000010860C010ADF8000048208DF803002A
:1038D00003208DF8020069460748FEF7F1FB00F06F
:1038E0004DFB4FF480700349143108600001091F3B
:1038F000086008BD000C0140000801402DE9F041BE
:1039000007460D4616464FF480500C49086038466D
:1039100000F06AFB8046002405E0FF2000F064FB15
:103920002855601CC4B2B442F7DB4FF48050034901
:10393000091F08604046BDE8F0810000140C0140FA
:103940002DE9F04107460C4615464FF480500C49CE
:103950000860384600F048FB8046002605E014F871
:10396000010B00F041FB701CC6B2AE42F7DB4FF416
:1039700080500349091F08604046BDE8F0810000FF
:10398000140C014070B505460C464FF480500849B0
:103990000860284600F028FB0646204600F024FB7D
:1039A0004FF480500249091F0860304670BD000086
:1039B000140C014010B5FFF76BFF00BF00F048FA90
:1039C000FFF740FF0128F9D010BD000070B50021BD
:1039D00000230F22C47804B3154C246804F4E06477
:1039E000C4F5E064210AC1F10403CA40447804FA32
:1039F00003F184781440214309010E4C0678A15547
:103A0000047804F01F050124AC4005786D11AD0069
:103A100005F1E025C5F8004109E0047804F01F0530
:103A20000124AC40044D0678761145F8264070BD5F
:103A30000CED00E000E400E080E100E00249014319
:103A4000024A1160704700000000FA050CED00E02A
:103A500070B502264A4800684478494800680078F2
:103A600000F07F0000284AD1092C03D100F024FE89
:103A7000064665E0052C14D141480068C0787F28CF
:103A80000BDC3F480068807838B93D480068808882
:103A900018B93B480068807A08B108256BE0002619
:103AA0004EE0032C14D136480068C07801280DD1AF
:103AB00033480068808848B931480068407A00F08F
:103AC000200018B100F01CFE064639E0022637E05F
:103AD000012C35D12A480068C07801280DD128482A
:103AE0000068808848B926480068407A00F02000C5
:103AF00018B100F07DFC064622E0022620E02048B6
:103B00000068007800F07F00012805D10B2C17D148
:103B100000F06AFE064613E019480068007800F0DD
:103B20007F0002280BD1012C03D100F061FC064676
:103B300006E0032C04D100F0F7FD064600E0022663
:103B40004EB1E0B20F4A1268516988470646032E0B
:103B500001D109250FE00EB108250CE00625002152
:103B60000948006880B2801C084A42F810103020D2
:103B70000749088000BF024909680D7270BD000046
:103B8000680100206C010020505C00400060004093
:103B90007A01002010B511480068047A032C01D086
:103BA000052C05D1FDF78CFE0C480068047A0EE068
:103BB000072C05D10A490968C8688047082406E02F
:103BC000022C01D0042C01D1082400E00824034970
:103BD00009680C7200F0AAF810BD0000680100200E
:103BE0006C010020F0B5561C7510074E06EB410421
:103BF0002B4605E034F8047B20F8017B401C5B1E5B
:103C0000002BF7D1F0BD00000060004070470000BD
:103C10004148006841490968401A41490988884279
:103C200000D270473C4800683C4908603D48007835
:103C300000F0010018B902203949887019E03948AC
:103C40000078C0F3001040B936480078C0F3400057
:103C500018B90020324988700BE032480078C0F370
:103C6000001018B101202E49887002E004202C4970
:103C700088702B48807850B3012804D002280DD0DA
:103C8000042842D12EE04FF47A7027490880091D9C
:103C90000880091D0880091D08803AE02248008834
:103CA00080F4077020490880081D008880F40770A0
:103CB000091D0880081D008880F40770091D088010
:103CC000081D008880F40770091D088021E04FF46A
:103CD000FA7015490880091D0880091D0880091D12
:103CE000088016E01048008880F407700E490880AC
:103CF000081D008880F40770091D08804FF47A7051
:103D0000091D0880091D088003E00120044988700E
:103D100000BF00BF00BF84E7200000204800002053
:103D200044000020240000203404004010B50D4859
:103D300090F82C10002000F0CBF90B480068007AB6
:103D4000082805D140020949088010200849088048
:103D500005480068007A092801D1012010BD002023
:103D6000FCE70000DC010020680100207801002051
:103D70007A01002010B5012001F004F901240B485C
:103D8000046000200A490880084600880749086046
:103D90000020091D08604FF4E050054908800846DE
:103DA000008802490860002010BD0000405C00400F
:103DB000720100202DE9F05F04464FF07F594FF06B
:103DC0007C512046FCF706FA824625462E460C48D2
:103DD000A0EB6606354629465046FCF7FBF98346BC
:103DE0002946FCF7F7F980464946FCF7F0F9074603
:103DF0002946FCF7EFF905462846BDE8F09F00008C
:103E0000DF59375F29B1064AD2690243044BDA61B0
:103E100004E0034AD2698243014BDA617047000033
:103E20000010024029B1064A92690243044B9A618C
:103E300004E0034A92698243014B9A617047000093
:103E4000001002400149086070470000D80042425B
:103E500010B54FF4807012490860052211492A20DC
:103E6000FFF76EFD00212120FFF78CFD01212220AC
:103E7000FFF788FD01212520FFF784FD2021312057
:103E8000FFF780FD07212620FFF77CFD0F21202072
:103E9000FFF778FD4FF480700149091F086010BDDD
:103EA000140C01406163000870B50546072D01D070
:103EB0002748057026480078082841D2DFE800F03E
:103EC000040A1016212E414200F046F8062020492F
:103ED00008703BE000F040F804201D49087035E010
:103EE00002201B494870032008702FE018484078D2
:103EF000401E174948700846407808B904200870E9
:103F000024E01448006884B244F0100411480460AE
:103F100005200F4908700A20487017E00C484078C7
:103F2000401E0B4948700846407840B9094800686F
:103F300084B224F01004074804600620087005E0ED
:103F400000BF00BF06200249087000BF00BF70BD5F
:103F500075020020405C004010B50748006884B23C
:103F600024F0040404480460FFF71AFA4FF43F40B9
:103F70000149086010BD0000405C004008B5012107
:103F80000820FFF74FFF4FF480511648FEF725F940
:103F90004FF40050ADF8000010208DF8030003200E
:103FA0008DF8020069460F48FEF78AF84FF400408A
:103FB000ADF8000069460B48FEF782F84FF48040E8
:103FC000ADF8000004208DF8030069460548FEF7AF
:103FD00077F84FF400500349143108608000091F3E
:103FE000086008BD000C014010B501460020002209
:103FF00026E04FF40053144C236001F0800323B1FA
:104000004FF40043241F236003E04FF400430E4CA1
:1040100023604B06190E4306180E4FF400530A4C4A
:10402000241F2360084B0C3B1B68C3F380330BB188
:10403000431CD8B24FF40053034C2360531CDAB234
:10404000082AD6DB10BD0000140C014070470000A8
:104050004FF6F8710140014A11607047505C004012
:1040600030B501460E4B1A78002011E003060D4CC6
:1040700004EB9353D3F8003C48F68F742340C4B24A
:1040800023430406074D05EB9454C4F8003C401C40
:104090009042EBD341F08003034C236030BD00001D
:1040A000D8010020005000404C5C004010B54A1080
:1040B0005300054A126892B202EBC002121D034C73
:1040C00044F8123010BD0000505C00400060004019
:1040D00010B502460F48006880B200EBC200801D98
:1040E0000D4C04EB40033E290BDD481101F01F0489
:1040F0000CB9441EA0B24FF4004444EA80241C6072
:1041000007E0481001F001040CB1441CA0B2840285
:104110001C6010BD505C00400060004010B50C4CAD
:1041200004EB8003D3F8003C4BF68F7403EA0402DF
:1041300001F480530BB182F4805201F400530BB1AF
:1041400082F40052024C04EB8003C3F8002C10BD33
:1041500000500040094B03EB8002D2F8002C4BF6D4
:104160008F7302EA030181F4805181F40051034B03
:1041700003EB8002C2F8001C7047000000500040B2
:1041800010B54A105200044B1B689BB203EBC003EE
:10419000024C44F8132010BD505C00400060004009
:1041A000044A126892B202EBC002921C024B43F81E
:1041B00012107047505C00400060004010B50C4C7D
:1041C00004EB8003D3F8003C48F6BF7403EA040212
:1041D00001F010030BB182F0100201F020030BB1CB
:1041E00082F02002024C04EB8003C3F8002C10BDC7
:1041F00000500040094B03EB8002D2F8002C48F637
:10420000BF7302EA030181F0100181F02001034B2A
:1042100003EB8002C2F8001C704700000050004011
:1042200010B5074B03EB8002D2F8002C48F68F1331
:104230001A400A43024C04EB8003C3F8002C10BD63
:104240000050004010B500F001F810BD0CB5002082
:10425000019000903348006840F480303149086094
:1042600000BF3048006800F4003000900198401C06
:104270000190009818B90198B0F5A06FF1D12948C4
:10428000006800F4003010B10120009001E000202F
:1042900000900098012843D12348006840F01000A6
:1042A000214908600846006820F0030008600846BD
:1042B000006840F0020008601A48406819494860E8
:1042C0000846406848600846406840F4806048609E
:1042D0000846406820F47C1048600846406840F476
:1042E000E81048600846006840F08070086000BF31
:1042F0000C48006800F000700028F9D009484068B8
:1043000020F00300074948600846406840F002007A
:10431000486000BF0348406800F00C000828F9D14D
:104320000CBD0000001002400020024010B500202B
:10433000FFF788FD0121C805FFF764FD10BD0000EF
:1043400008B52848006880B2001D274931F81000E0
:1043500080B201EB4000009024480068007A0928F0
:104360002FD0009800782149096808700098401CF7
:104370000090009800781D49096848700098401C1A
:1043800000900098801C0090009931F8020B009179
:10439000FCF710FF1549096848800098801C0090C0
:1043A000009931F8020B0091FCF704FF0F490968EE
:1043B00088800098801C0090009800880B4909684C
:1043C000C880012009490968087208480068C08847
:1043D00010B9FFF73DFB01E0FDF7D0FAFFF7A6FCAF
:1043E00008BD0000505C00400060004068010020F3
:1043F0002DE9F04750480068007800F07F08B8F1D8
:10440000000F0AD14C480068407A00F0DF004A49AA
:10441000096848720020BDE8F087B8F1020F7DD12D
:1044200045480068408818B943480068007908B1D9
:104430000220F0E7DFF804913F480068477927F051
:1044400080052C463C480068407900F0800038B177
:104450003B4901EB8400D0F8000C00F0300606E088
:10446000374901EB8400D0F8000C00F4405699F86D
:104470000000A84204D91EB12F480068807A08B90C
:104480000220C8E707F0800080B12D4901EB8400CD
:10449000D0F8000C00F03000102843D1E0B2FDF756
:1044A0003DF8E0B23021FFF789FE3BE0244901EB03
:1044B0008400D0F8000C00F44050B0F5805F31D19A
:1044C000C4B9204A92F82C10E0B2FFF701FE1C4A52
:1044D00002EB8401D1F8001C4BF68F7201EA020056
:1044E00080F4805080F40050154A02EB8401C1F83A
:1044F000000C17E0E0B2FCF7F7FF114A02EB840171
:10450000D1F8001C4BF68F7201EA020080F4805053
:1045100080F400500A4A02EB840100E008E0C1F890
:10452000000C00BF0849096848698047002072E70D
:1045300000BF02206FE7000068010020D8010020C2
:1045400000500040DC0100207401002010B504463A
:104550002CB90120064909680882002010BD0549D0
:10456000096808688047024800680A30F6E70000DA
:10457000680100207401002010B50246064800685A
:10458000438A32B98888C01A034C246820820020EC
:1045900010BD08681844FBE76801002010B5044608
:1045A0002CB90120064909680882002010BD054980
:1045B000096888688047024800680C30F6E7000008
:1045C000680100207401002010B504462CB90220B7
:1045D000354909680882002010BD00203349088051
:1045E00031480068007800F07F00E0B92E49096882
:1045F000487A00F0200129B12C49097841F00201E4
:104600002A4A117000F0400131B12849097801F0BF
:10461000FE01264A117005E02449097841F00101A4
:10462000224A11703AE020480068007800F07F00CC
:10463000012801D11D48CFE71B480068007800F031
:104640007F00022828D1184A1268517901F00F0022
:1046500001F080027AB1164B03EB8002D2F8002CF5
:1046600002F03002102A16D1104A127842F00102EC
:104670000E4B1A700FE00E4B03EB8002D2F8002CA9
:1046800002F44052B2F5805F05D1084A127842F038
:104690000102064B1A7001E000209DE705490968F8
:1046A00008698047014897E7680100206001002001
:1046B000005000407401002010B50E480068C0781A
:1046C0000D494978884213DC0A480068807878B937
:1046D00008480068808858B906480068C0780549CD
:1046E000096888720549096848688047002010BD3C
:1046F0000220FCE768010020D8010020740100209E
:1047000010B507480068407A40F020000449096865
:10471000487204490968C8698047002010BD00003C
:1047200068010020740100202DE9F0412A4800684A
:10473000467926F080073C4627480068407900F01B
:10474000800038B1254901EB8400D0F8000C00F05E
:10475000300506E0214901EB8400D0F8000C00F49C
:1047600040551F480078A04208D91B48006840887F
:1047700020B91DB118480068807A10B90220BDE840
:10478000F08106F0800080B1144A02EB8401D1F878
:10479000001C48F6BF7201EA020080F010000F4AC8
:1047A00002EB8401C1F8000C10E00C4A02EB84011A
:1047B000D1F8001C4BF68F7201EA020080F48050A1
:1047C000064A02EB8401C1F8000C00BF05490968E4
:1047D000886980470020D2E768010020005000402F
:1047E000D80100207401002010B5174B1B68D97840
:1047F000154B1B685879154B1B689A6990470446FE
:1048000011480068807AE8B13CB90F480068007927
:1048100018B90D480068807808B1022010BD8CB925
:104820000B490968C868804707480068407906490D
:104830000968C87204480068C078034909680873A9
:104840000020EBE70220E9E7680100206C0100206E
:104850007401002010B50848006884B244F00804D0
:1048600005480460006884B244F00404024804600F
:10487000FDF7F0F910BD0000405C00400248006800
:10488000401C0149086070472000002010B5134803
:10489000006840F00100114908600846406810496E
:1048A00008400E494860084600680E4908400B4918
:1048B00008600846006820F48020086008464068C8
:1048C00020F4FE0048604FF41F008860FFF7BAFC38
:1048D0004FF000600449086010BD00000010024065
:1048E0000000FFF8FFFFF6FE08ED00E01FB5012114
:1048F000C802FFF797FA19208DF8000001208DF803
:10490000010003208DF8020001208DF803006846A5
:10491000FFF75CF840F22B10ADF8080040F2CF2012
:10492000ADF804000020ADF80A00ADF8060001A9BA
:10493000064800F0D5FA01221146044800F06AF951
:104940000121024800F049F91FBD0000002C014080
:1049500010B50121244800F04CF9002843D0234829
:104960000068401C2149086021480078401C20490B
:10497000087020480078401C1E4908701E480078C6
:10498000401C1D49087008460078082806DB0020F6
:10499000087001F015F91948FDF750FA144800782D
:1049A00001280BD1002012490870FEF78DFEFCF79C
:1049B000F5FA1348FDF76CF9FEF704FD0D48007891
:1049C00002280CD100200B4908700E4A0E490F48EE
:1049D000FDF706FC0E48FEF713F801F059FA012125
:1049E000014800F0F7F810BD002C01402000002025
:1049F0001C0000201D0000201E000020A69BC43CBF
:104A0000A69B443BB020CD3B880200207C020020C6
:104A1000A69BC43B00B589B001210420FFF702FA30
:104A20000F20ADF8040003208DF8060018208DF843
:104A3000070001A92848FDF743FB01210846FFF7BD
:104A4000E1F940F2E730ADF81C000820ADF818009D
:104A50000020ADF81E00ADF81A0006A94FF0804006
:104A600000F03EFA6020ADF808000120ADF80A0021
:104A70000020ADF80E00ADF8100002A94FF0804004
:104A800000F0D2F80821C80600F01AF902A94FF088
:104A9000804000F01FF90821C80600F06DF902A956
:104AA0004FF0804000F076F90821C80600F0C2F906
:104AB00002A94FF0804000F0C7F90821C80600F0B5
:104AC00001FA0121880700F079F80121880700F038
:104AD00084F809B000BD00000008014000B589B0AD
:104AE00001210420FFF79EF901210820FFF79AF920
:104AF000C020ADF8040003208DF8060018208DF8C2
:104B0000070001A92A48FDF7DBFA0320ADF80400ED
:104B100001A92848FDF7D4FA01210220FFF772F914
:104B200040F2E730ADF81C002320ADF8180000205B
:104B3000ADF81E00ADF81A0006A91F4800F0D0F924
:104B40006020ADF808000120ADF80A004FF47A703B
:104B5000ADF80E000020ADF8100002A9164800F0D4
:104B600063F80821144800F0ABF802A9124800F0DD
:104B7000B1F80821104800F0FFF802A90E4800F033
:104B800009F908210C4800F055F902A90A4800F07B
:104B90005BF90821084800F095F90121064800F06A
:104BA0000DF80121044800F018F809B000BD00001C
:104BB00000080140000C01400004004021B10288BF
:104BC00042F08002028004E002884FF67F731A40B0
:104BD00002807047CA430282704721B1028842F0C6
:104BE0000102028004E002884FF6FE731A40028040
:104BF000704730B50246002000230024158A05EADC
:104C00000103958905EA010413B10CB1012000E00C
:104C1000002030BD1AB183890B43838102E0838970
:104C20008B4383817047000070B50024002200236D
:104C3000058C4FF6FE7635400584028C8388048B04
:104C40004FF68F752C40B51E2C400D882C43751ED9
:104C50002A400D892A434D882A43144DA8420BD07F
:104C6000134DA84208D0134DA84205D0124DA842BA
:104C700002D0124DA84213D14FF6F7752A404D8944
:104C80002A434FF6FB752A408D882A434FF6FF656D
:104C90002B404FF6FF552B408D892B43CD892B435D
:104CA00083800483CD888586028470BD002C0140FA
:104CB00000340140004001400044014000480140F0
:104CC0000A460021018B4FF6F77319401143018307
:104CD0007047000070B5002400220023058C4FF6B9
:104CE000EF7635400584028C8388048B48F6FF7587
:104CF0002C404FF6FF452C400D884FF6FF7606EA14
:104D000005252C434FF6DF752A400D8906EA051567
:104D10002A434D8806EA05152A43154DA84202D0BC
:104D2000144DA8421DD14FF67F752A404D894FF68C
:104D3000FF7606EA05152A434FF6BF752A408D888F
:104D400006EA05152A434FF6FF352B404FF2FF7553
:104D50002B408D8906EA85052B43CD8906EA85051A
:104D60002B4383800483CD880587028470BD0000B7
:104D7000002C0140003401400A460021018B4FF213
:104D8000FF7319404FF6FF7303EA022319430183AF
:104D90007047000070B5002400220023058C4FF6F8
:104DA000FF6635400584028C8388848B4FF68F75AF
:104DB0002C404FF6FC752C400D882C434FF6FF55C8
:104DC0002A400D894FF6FF7606EA05252A434D88CD
:104DD00006EA05252A43154DA84202D0144DA842E3
:104DE0001DD14FF2FF752A404D894FF6FF7606EA36
:104DF00005252A434FF6FF352A408D8806EA05250A
:104E00002A434EF6FF752B404DF6FF752B408D89DA
:104E100006EA05152B43CD8906EA05152B43838049
:104E20008483CD888587028470BD0000002C0140FA
:104E3000003401400A460021818B4FF6F773194078
:104E4000114381837047000070B5002200230024C5
:104E5000058C4EF6FF7635400584038C8488828B62
:104E600048F6FF752A404FF6FF452A400D884FF659
:104E7000FF7606EA05252A434DF6FF752B400D897E
:104E800006EA05352B434D8806EA05352B430B4DC5
:104E9000A84202D00A4DA84208D14BF6FF752C401B
:104EA0008D894FF6FF7606EA85152C438480828330
:104EB000CD88A0F84050038470BD0000002C014054
:104EC000003401400A460021818B4FF2FF731940E4
:104ED0004FF6FF7303EA02231943818370470000F2
:104EE000002202881D4B98420ED01D4B98420BD0D9
:104EF000B0F1804F08D01B4B984205D01A4B984216
:104F000002D01A4B984204D14FF68F731A404B8847
:104F10001A43174B984207D0164B984204D04FF6CD
:104F2000FF431A40CB881A4302808B8883850B8805
:104F300003850A4B98420BD0094B984208D00E4B80
:104F4000984205D00D4B984202D00D4B984201D1AA
:104F50000B7A03860123838270470000002C0140F6
:104F6000003401400004004000080040000C0040F4
:104F70000010004000140040004001400044014087
:104F8000004801407047000010B50446012104208C
:104F9000FEF748FF3CB11048006880B220F00200E4
:104FA0000D49086016E00C48006880B240F002002D
:104FB000094908600948006820F47F200749086013
:104FC0000846006840F44C30086089140348001F0C
:104FD000FDF701F910BD0000405C004004080140ED
:104FE00010B5FFF7A3F900F011F80020064908708A
:104FF000FFF7CAFF642000F0D1FD0120FFF7C4FFD6
:1050000000F022F810BD00002E00002010B5084866
:1050100008490860022009680872074807490860C3
:10502000074808490860054909680868804710BDB5
:10503000C806002068010020DC0100206C0100206F
:105040000C0200207401002008B514208DF8000027
:1050500001208DF8010000208DF8020001208DF85C
:1050600003006846FEF7B2FC08BD000010B53748E3
:105070000068374908800846008800F48060354998
:105080000988084030B14FF6FF3030490860324996
:10509000486880472E48008800F400502D49098850
:1050A000084018B14DF6FF7028490860284800886C
:1050B00000F4805027490988084030B14EF6FF704F
:1050C000224908600020FEF7EFFE2148008800F426
:1050D000006020490988084060B12048007810B17C
:1050E000FFF7B8FB02E00220FEF7DEFE4FF2FF7092
:1050F000164908601648008800F4007015490988B0
:10510000084040B14FF6FF5010490860144800783D
:10511000401C134908700E48008800F480700D4947
:105120000988084030B14FF6FF6008490860072041
:10513000FEF7BAFE0648008800F4004005490988D9
:10514000084008B1FCF73CF810BD0000445C00408A
:105150009801002072010020DC0100207402002070
:105160009A01002010B5FFF781FF10BD00BFFEE7D8
:1051700070B5024600200AE0145C064B1D781B78CF
:105180005B1C044E3370044B5C55431CD8B2884200
:10519000F2DB70BD310000205C05002010B56D48C9
:1051A00000786D490978884263DD6A4800786A4969
:1051B0000978401A3F281FDB0020684908703F200B
:1051C0006749087000240BE0634801780078401CB0
:1051D000614A10706348415C614A601C1154C4B25A
:1051E0003F2CF1DB40224FF48C715D4800F0BEF89B
:1051F0000220FEF7FFFFABE058480078401C5749FB
:10520000087008460078584909788842F3D1002090
:10521000524908704F4800784F490978401A504960
:105220000870002415E04B4800784B490978401A73
:10523000A04208DD4848007820444A49095C484AB1
:10524000601C115403E00021454A601C1154601C8D
:10525000C4B23F2CE7DB3F4800783F49087040224A
:105260004FF48C713E4800F081F80220FEF7C2FF37
:105270006EE03848007838490978884268DA36485C
:105280000078C0F580703349097808443F281FDB57
:105290000020324908703F203149087000240BE09B
:1052A0002D4801780078401C2B4A10702D48415C35
:1052B0002B4A601C1154C4B23F2CF1DB40224FF446
:1052C0008C71274800F052F80220FEF793FF3FE070
:1052D00022480078401C214908700846007822497D
:1052E0000978884234D100201C4908701A48007897
:1052F000404218490978084419490870002418E008
:1053000015480078C0F58070124909780844A04219
:1053100009DD114800782044C0B21249095C104AE6
:10532000601C115403E000210D4A601C1154601CE4
:10533000C4B23F2CE4DB07480078074908704022DC
:105340004FF48C71064800F011F80220FEF752FF6E
:1053500010BD00003100002030000020320000208D
:10536000E40600205C0500202F000020F0B5144664
:1053700004F1010C4FEA6C07DFF824C00CEB410389
:105380003D460AE00678401C90F800C046EA0C2230
:1053900023F8022B9B1C401C6D1E002DF2D1F0BD8A
:1053A00000600040490050EAC12018BF04204A0DA7
:1053B00018BF40F0010040F2FF72B2EB515F08BF2E
:1053C00040F00200012808BF052070474100080294
:1053D00018BF04200A0E18BF40F001004FF07F42B2
:1053E00032EA010108BF40F00200012808BF052091
:1053F00070472DE9F0414F1E00EBC7010446D1E98B
:10540000000115461E4637F006020DD02A463346E7
:10541000FAF7F7FF7F1E04EBC703D3E90023FAF77F
:1054200049FF37F00602F1D1022F25D0042F13D007
:10543000062F18BFBDE8F0812A463346FAF7E1FF90
:10544000D4E90A23FAF736FF2A463346FAF7D9FF9A
:10545000D4E90823FAF72EFF2A463346FAF7D1FF9C
:10546000D4E90623FAF726FF2A463346FAF7C9FF9E
:10547000D4E90423FAF71EFF2A463346FAF7C1FFA0
:10548000D4E90223FAF716FF2A463346FAF7B9FFA2
:10549000D4E90023BDE8F041FAF70CBF0122FBF785
:1054A00011BA0022134610461146FBF79CB90000C2
:1054B000024A00201107FBF705BA000001FDFFFFBB
:1054C0000121FBF709B9FAF72DBE00210846FAF7CA
:1054D000B3BE6FF05E010807FBF7FEB82DE9F04D93
:1054E0000D4614464FF07F41B1EB440F9EBF4FF085
:1054F000FF312960BDE8F08D4FF0004040EA042103
:10550000C4F3C750783810F01F024A4B4FEA601CB2
:10551000C2F120067B44C4F3C750A0F178004FEAE3
:10552000601003EB800053F82C3008BFD0E901C6AF
:1055300012D0D0F804C093402CFA06F73B4387689A
:105540000CFA02FC27FA06F8C06807FA02F2F040EB
:105550004CEA080C42EA0006A3FB0132ACFB01C096
:10556000A6FB016101EB0C068E4234BF4FF0010C2B
:105570004FF0000CC1186144BCF1000F02D0814211
:1055800002D903E0814201D2012000E00020104452
:1055900000F120024FEA92188006CA0C40EA42301D
:1055A0004F03C5F80080FAF79EFF82463846FAF7A7
:1055B000A3FF6FF01201FBF78FF807463046FAF7AA
:1055C0009BFF6FF02501FBF787F88346394650466D
:1055D000FAF7A8FD5946FAF7A5FD00F500666FF346
:1055E0000B0651463046FAF7EFFD3946FAF7ECFD67
:1055F0005946FAF7ECFD1049FAF7ECFD07460F495A
:105600003046FAF7E7FD3946FAF78CFD07460C49B4
:105610003046FAF7DFFD3946FAF784FD14F0004F03
:1056200008BFBDE8F08DC8F1805180F000402960CE
:10563000BDE8F08D400F0000DB0FC92F22AAFD2925
:105640000000C92F02E008C8121F08C1002AFAD1C1
:1056500070477047002001E001C1121F002AFBD1F2
:105660007047000001490860704700007802002080
:105670002DE9F04D8D4F21F0004A86B005460C46CD
:10568000BA452ADBAAEB070028430AD0884882459E
:1056900001DC1AD1CDB106B02846BDE8F04DFFF7C8
:1056A000FDBE844A844B2846FAF7ABFE07460E46F9
:1056B000824A834B28462146FAF7A3FE06B03A46B3
:1056C0003346BDE8F04DFAF7F5BD0120FFF7CAFFFC
:1056D00006B0BDE8F04DFFF7E4BE7A48824542DAF5
:1056E000BAF1795F0BDA2846FFF75CFE042808BFA1
:1056F000FFF7DEFE284606B02146BDE8F08D2A46BB
:105700000B461046FAF77DFE834602466E480E466B
:105710000B4606217844FFF76CFE5A463346FAF7EB
:1057200070FE804669488A465A46334604217844CA
:10573000FFF75FFE5A463346FAF763FE00223B4608
:10574000FAF7B8FD02460B4640465146FBF74BF8C8
:105750002A462346FAF755FE06B02A462346BDE8F8
:10576000F04DFAF7A7BD284624F0004100223D463F
:105770003B46FAF743FE4FF0FF32FBF7A3F806462D
:10578000024653480F460B4606217844FFF731FE88
:1057900032463B46FAF735FECDE900014D48324628
:1057A0003B4604217844FFF724FE32463B46FAF795
:1057B00028FE00222B46FAF77DFD834602913046F3
:1057C000394600F0EBFC804643480D46504517DC57
:1057D000DDE900015A46029BFBF705F842462B46DD
:1057E000FAF70FFE42462B46FAF764FD0122FBF75B
:1057F00069F8304A304BFAF7FEFD304A304B4CE046
:105800004FF0000A52460B464046FAF753FDCDE9E9
:10581000031052462B4610461946FAF7F2FD32465F
:105820003B46FAF7EBFDDDE90332FAF7DCFF06460B
:105830000F46DDE900015A46029BFAF7D4FF834682
:105840000091012230463946FBF73CF8194A1A4BC1
:10585000FAF7D4FD06460F46012240462946FBF7DB
:1058600031F85A46009BFAF7CCFD32463B46FAF730
:10587000C2FD06460F46012250462946FBF722F894
:105880000E4DDFF858802A464346FAF7B7FD3246F8
:105890003B46FAF7B3FD2A464346FAF7AFFD002C24
:1058A000D8BF81F0004106B0BDE8F08D0000F03FA8
:1058B0000000F07F075C143326A6913C182D445459
:1058C000FB21F93F0000E03FF00C0000060D000056
:1058D0007A0C0000900C00003333EF3FFB21E93FCE
:1058E0002DE9F0474FF0684202EB40030C460546B5
:1058F000B3F1654F3CBF02EB4102B2F1654F7CD280
:10590000C0F3C753C1F3C7529A1A1B2A06DD10F021
:10591000004F14BF76487748BDE8F08712F11A0FA0
:1059200017DA11F0004F06D010F0004F0CBF72488C
:105930007248BDE8F08721462846FAF77DFC044608
:10594000FFF744FD042808BFFFF7C3FD2046BDE86C
:10595000F0874200B2EB410F25D910F0004F19BF7C
:10596000674F684E684F694E224685F000441546E1
:105970000A4680F0004110460A1A5200B2F1807FB8
:1059800040D248406249DFF88CA110F0004F18D097
:105990004FF03F483846FAF717FC07465146304665
:1059A000FAF712FC17E011F0004F04BF002637464B
:1059B000E2D010F0004F19BF574F584E584F594E74
:1059C000DAE74FF07C583846FAF7ACFB0746514609
:1059D0003046FAF7A7FB064641462846FAF7FAFB97
:1059E0002146FAF79FFB824621464046FAF7F2FB32
:1059F0002946FAF7ECFB514600E037E0FAF71CFCC9
:105A0000044604E021462846FAF716FC04460146FF
:105A1000FAF7E0FB80464449FAF7DCFB4349FAF722
:105A200081FB4146FAF7D6FB4149FAF77BFB414639
:105A3000FAF7D0FB3F49FAF775FB4146FAF7CAFB84
:105A40003D49FAF76FFB054641462046FAF7C2FB8F
:105A50002946FAF7BFFB3146FAF764FB2146FAF70D
:105A600061FB3946BDE8F047FAF75CBB4FF07F4277
:105A7000B2EB400F28BFB2EB410F03D2BDE8F047B5
:105A8000FFF721BD40EA01035B0008BF44F0FF417E
:105A90000AD0B2EB400F08BFB2EB410F06D125F0A0
:105AA000804024F0804105460C4629E7B2EB400FC8
:105AB00012BF5FEA410245F0FF4004F000413FF4AD
:105AC0001FAF4A0092EA40033FF51AAF002AACBF6D
:105AD0004FF09F464FF03E563146FAF77BFB0546A6
